{
  "abi": [
    {
      "type": "constructor",
      "inputs": [
        {
          "name": "lzEndpoint",
          "type": "address",
          "internalType": "address"
        },
        {
          "name": "crossChainController",
          "type": "address",
          "internalType": "address"
        },
        {
          "name": "providerGasLimit",
          "type": "uint256",
          "internalType": "uint256"
        },
        {
          "name": "trustedRemotes",
          "type": "tuple[]",
          "internalType": "struct IBaseAdapter.TrustedRemotesConfig[]",
          "components": [
            {
              "name": "originForwarder",
              "type": "address",
              "internalType": "address"
            },
            {
              "name": "originChainId",
              "type": "uint256",
              "internalType": "uint256"
            }
          ]
        }
      ],
      "stateMutability": "nonpayable"
    },
    {
      "type": "function",
      "name": "BASE_GAS_LIMIT",
      "inputs": [],
      "outputs": [
        {
          "name": "",
          "type": "uint256",
          "internalType": "uint256"
        }
      ],
      "stateMutability": "view"
    },
    {
      "type": "function",
      "name": "CROSS_CHAIN_CONTROLLER",
      "inputs": [],
      "outputs": [
        {
          "name": "",
          "type": "address",
          "internalType": "contract IBaseCrossChainController"
        }
      ],
      "stateMutability": "view"
    },
    {
      "type": "function",
      "name": "LZ_ENDPOINT",
      "inputs": [],
      "outputs": [
        {
          "name": "",
          "type": "address",
          "internalType": "contract ILayerZeroEndpointV2"
        }
      ],
      "stateMutability": "view"
    },
    {
      "type": "function",
      "name": "adapterName",
      "inputs": [],
      "outputs": [
        {
          "name": "",
          "type": "string",
          "internalType": "string"
        }
      ],
      "stateMutability": "view"
    },
    {
      "type": "function",
      "name": "allowInitializePath",
      "inputs": [
        {
          "name": "origin",
          "type": "tuple",
          "internalType": "struct Origin",
          "components": [
            {
              "name": "srcEid",
              "type": "uint32",
              "internalType": "uint32"
            },
            {
              "name": "sender",
              "type": "bytes32",
              "internalType": "bytes32"
            },
            {
              "name": "nonce",
              "type": "uint64",
              "internalType": "uint64"
            }
          ]
        }
      ],
      "outputs": [
        {
          "name": "",
          "type": "bool",
          "internalType": "bool"
        }
      ],
      "stateMutability": "view"
    },
    {
      "type": "function",
      "name": "forwardMessage",
      "inputs": [
        {
          "name": "receiver",
          "type": "address",
          "internalType": "address"
        },
        {
          "name": "executionGasLimit",
          "type": "uint256",
          "internalType": "uint256"
        },
        {
          "name": "destinationChainId",
          "type": "uint256",
          "internalType": "uint256"
        },
        {
          "name": "message",
          "type": "bytes",
          "internalType": "bytes"
        }
      ],
      "outputs": [
        {
          "name": "",
          "type": "address",
          "internalType": "address"
        },
        {
          "name": "",
          "type": "uint256",
          "internalType": "uint256"
        }
      ],
      "stateMutability": "nonpayable"
    },
    {
      "type": "function",
      "name": "getTrustedRemoteByChainId",
      "inputs": [
        {
          "name": "chainId",
          "type": "uint256",
          "internalType": "uint256"
        }
      ],
      "outputs": [
        {
          "name": "",
          "type": "address",
          "internalType": "address"
        }
      ],
      "stateMutability": "view"
    },
    {
      "type": "function",
      "name": "infraToNativeChainId",
      "inputs": [
        {
          "name": "infraChainId",
          "type": "uint256",
          "internalType": "uint256"
        }
      ],
      "outputs": [
        {
          "name": "",
          "type": "uint256",
          "internalType": "uint256"
        }
      ],
      "stateMutability": "pure"
    },
    {
      "type": "function",
      "name": "lzReceive",
      "inputs": [
        {
          "name": "_origin",
          "type": "tuple",
          "internalType": "struct Origin",
          "components": [
            {
              "name": "srcEid",
              "type": "uint32",
              "internalType": "uint32"
            },
            {
              "name": "sender",
              "type": "bytes32",
              "internalType": "bytes32"
            },
            {
              "name": "nonce",
              "type": "uint64",
              "internalType": "uint64"
            }
          ]
        },
        {
          "name": "",
          "type": "bytes32",
          "internalType": "bytes32"
        },
        {
          "name": "_message",
          "type": "bytes",
          "internalType": "bytes"
        },
        {
          "name": "",
          "type": "address",
          "internalType": "address"
        },
        {
          "name": "",
          "type": "bytes",
          "internalType": "bytes"
        }
      ],
      "outputs": [],
      "stateMutability": "payable"
    },
    {
      "type": "function",
      "name": "nativeToInfraChainId",
      "inputs": [
        {
          "name": "nativeChainId",
          "type": "uint256",
          "internalType": "uint256"
        }
      ],
      "outputs": [
        {
          "name": "",
          "type": "uint256",
          "internalType": "uint256"
        }
      ],
      "stateMutability": "pure"
    },
    {
      "type": "function",
      "name": "nextNonce",
      "inputs": [
        {
          "name": "",
          "type": "uint32",
          "internalType": "uint32"
        },
        {
          "name": "",
          "type": "bytes32",
          "internalType": "bytes32"
        }
      ],
      "outputs": [
        {
          "name": "",
          "type": "uint64",
          "internalType": "uint64"
        }
      ],
      "stateMutability": "pure"
    },
    {
      "type": "function",
      "name": "setupPayments",
      "inputs": [],
      "outputs": [],
      "stateMutability": "nonpayable"
    },
    {
      "type": "event",
      "name": "SetTrustedRemote",
      "inputs": [
        {
          "name": "originChainId",
          "type": "uint256",
          "indexed": false,
          "internalType": "uint256"
        },
        {
          "name": "originForwarder",
          "type": "address",
          "indexed": false,
          "internalType": "address"
        }
      ],
      "anonymous": false
    },
    {
      "type": "error",
      "name": "InvalidOptionType",
      "inputs": [
        {
          "name": "optionType",
          "type": "uint16",
          "internalType": "uint16"
        }
      ]
    }
  ],
  "bytecode": {
    "object": "0x6101006040523480156200001257600080fd5b5060405162001909380380620019098339810160408190526200003591620002df565b8282604051806040016040528060118152602001702630bcb2b92d32b9379030b230b83a32b960791b8152508360006001600160a01b0316846001600160a01b0316141560405180604001604052806002815260200161323360f01b81525090620000be5760405162461bcd60e51b8152600401620000b59190620003f2565b60405180910390fd5b506001600160a01b03841660805260a08390526001620000df8382620004d1565b503060c05260005b8151811015620001ef5760008282815181106200010857620001086200059d565b6020026020010151905060006001600160a01b031681600001516001600160a01b0316141560405180604001604052806002815260200161323760f01b81525090620001695760405162461bcd60e51b8152600401620000b59190620003f2565b50805160208083018051600090815280835260409081902080546001600160a01b0319166001600160a01b03958616179055905184518251918252909316918301919091527fa214744f665691ef0eb9e4277cfa3c9198106c8925d6fa6880b6813f705c1aab910160405180910390a15080620001e681620005b3565b915050620000e7565b5050604080518082019091526002815261191b60f11b6020820152925050506001600160a01b038516620002385760405162461bcd60e51b8152600401620000b59190620003f2565b505050506001600160a01b031660e052620005db565b80516001600160a01b03811681146200026657600080fd5b919050565b634e487b7160e01b600052604160045260246000fd5b604080519081016001600160401b0381118282101715620002a657620002a66200026b565b60405290565b604051601f8201601f191681016001600160401b0381118282101715620002d757620002d76200026b565b604052919050565b60008060008060808587031215620002f657600080fd5b62000301856200024e565b93506020620003128187016200024e565b60408781015160608901519296509450906001600160401b03808211156200033957600080fd5b818901915089601f8301126200034e57600080fd5b8151818111156200036357620003636200026b565b62000373858260051b01620002ac565b818152858101925060069190911b83018501908b8211156200039457600080fd5b928501925b81841015620003e25784848d031215620003b35760008081fd5b620003bd62000281565b620003c8856200024e565b815284870151878201528352928401929185019162000399565b989b979a50959850505050505050565b600060208083528351808285015260005b81811015620004215785810183015185820160400152820162000403565b506000604082860101526040601f19601f8301168501019250505092915050565b600181811c908216806200045757607f821691505b6020821081036200047857634e487b7160e01b600052602260045260246000fd5b50919050565b601f821115620004cc57600081815260208120601f850160051c81016020861015620004a75750805b601f850160051c820191505b81811015620004c857828155600101620004b3565b5050505b505050565b81516001600160401b03811115620004ed57620004ed6200026b565b6200050581620004fe845462000442565b846200047e565b602080601f8311600181146200053d5760008415620005245750858301515b600019600386901b1c1916600185901b178555620004c8565b600085815260208120601f198616915b828110156200056e578886015182559484019460019091019084016200054d565b50858210156200058d5787850151600019600388901b60f8161c191681555b5050505050600190811b01905550565b634e487b7160e01b600052603260045260246000fd5b600060018201620005d457634e487b7160e01b600052601160045260246000fd5b5060010190565b60805160a05160c05160e0516112ca6200063f60003960008181610262015281816102f801528181610570015281816106a301526107a1015260006109b101526000818161018a015261053001526000818161022e0152610a0701526112ca6000f3fe6080604052600436106100a75760003560e01c8063b86a616111610064578063b86a6161146101ac578063ba286578146101fa578063c49563661461021c578063cd4d1c6414610250578063d688758114610284578063ff7bd03d146102a457600080fd5b806313137d65146100ac5780631e02e77c146100c157806336da7a06146100f457806352d1043d146101335780637d25a05e1461013f57806381fbadad14610178575b600080fd5b6100bf6100ba366004610e0b565b6102d4565b005b3480156100cd57600080fd5b506100e16100dc366004610eaa565b6103b7565b6040519081526020015b60405180910390f35b34801561010057600080fd5b5061011461010f366004610ec3565b610488565b604080516001600160a01b0390931683526020830191909152016100eb565b3480156100bf57600080fd5b34801561014b57600080fd5b5061015f61015a366004610f3f565b6107de565b60405167ffffffffffffffff90911681526020016100eb565b34801561018457600080fd5b506100e17f000000000000000000000000000000000000000000000000000000000000000081565b3480156101b857600080fd5b506101e26101c7366004610eaa565b6000908152602081905260409020546001600160a01b031690565b6040516001600160a01b0390911681526020016100eb565b34801561020657600080fd5b5061020f6107e7565b6040516100eb9190610fb9565b34801561022857600080fd5b506101e27f000000000000000000000000000000000000000000000000000000000000000081565b34801561025c57600080fd5b506101e27f000000000000000000000000000000000000000000000000000000000000000081565b34801561029057600080fd5b506100e161029f366004610eaa565b610875565b3480156102b057600080fd5b506102c46102bf366004610fcc565b610939565b60405190151581526020016100eb565b604080518082019091526002815261323560f01b6020820152336001600160a01b037f0000000000000000000000000000000000000000000000000000000000000000161461033f5760405162461bcd60e51b81526004016103369190610fb9565b60405180910390fd5b50600061035d61035260208a018a610fe8565b63ffffffff166103b7565b905061036888610939565b60405180604001604052806002815260200161189960f11b815250906103a15760405162461bcd60e51b81526004016103369190610fb9565b506103ad86868361098d565b5050505050505050565b600081617595036103ca57506001919050565b8161759a036103dc575061a86a919050565b8161759d036103ed57506089919050565b8161759e036103ff575061a4b1919050565b8161759f036104105750600a919050565b816175a003610421575060fa919050565b816175a40361043557506363564c40919050565b816175960361044657506038919050565b816175c7036104585750610440919050565b816175c10361046957506064919050565b816175ad0361047b575061a4ec919050565b506000919050565b919050565b600080600061049e61049987610875565b610a77565b604080518082019091526002815261031360f41b602082015290915063ffffffff82166104de5760405162461bcd60e51b81526004016103369190610fb9565b506040805180820190915260018152603960f81b60208201526001600160a01b03891661051e5760405162461bcd60e51b81526004016103369190610fb9565b506001600160a01b03881660006105557f00000000000000000000000000000000000000000000000000000000000000008a611019565b9050600061056a61056583610ae0565b610b49565b905060007f00000000000000000000000000000000000000000000000000000000000000006001600160a01b031663ddc28c586040518060a001604052808863ffffffff1681526020018781526020018c8c8080601f016020809104026020016040519081016040528093929190818152602001838380828437600092018290525093855250505060208201879052604091820152516001600160e01b031960e084901b1681526106209190309060040161102c565b6040805180830381865afa15801561063c573d6000803e3d6000fd5b505050506040513d601f19601f820116820180604052508101906106609190611102565b8051604080518082019091526002815261313160f01b602082015291925047101561069e5760405162461bcd60e51b81526004016103369190610fb9565b5060007f00000000000000000000000000000000000000000000000000000000000000006001600160a01b0316632637a45083600001516040518060a001604052808a63ffffffff1681526020018981526020018e8e8080601f016020809104026020016040519081016040528093929190818152602001838380828437600092018290525093855250505060208201899052604091820152516001600160e01b031960e085901b1681526107589190309060040161102c565b60806040518083038185885af1158015610776573d6000803e3d6000fd5b50505050506040513d601f19601f8201168201806040525081019061079b919061111e565b602001517f0000000000000000000000000000000000000000000000000000000000000000985067ffffffffffffffff1696505050505050509550959350505050565b60005b92915050565b600180546107f49061119e565b80601f01602080910402602001604051908101604052809291908181526020018280546108209061119e565b801561086d5780601f106108425761010080835404028352916020019161086d565b820191906000526020600020905b81548152906001019060200180831161085057829003601f168201915b505050505081565b6000600182036108885750617595919050565b61a86a820361089a575061759a919050565b608982036108ab575061759d919050565b61a4b182036108bd575061759e919050565b600a82036108ce575061759f919050565b60fa82036108df57506175a0919050565b6363564c4082036108f357506175a4919050565b610440820361090557506175c7919050565b603882036109165750617596919050565b6064820361092757506175c1919050565b61a4ec820361047b57506175ad919050565b60008061094c6103526020850185610fe8565b60008181526020818152604090912054919250840135906001600160a01b03808316911614801561098557506001600160a01b03811615155b949350505050565b6040805180820190915260028152610c8d60f21b6020820152306001600160a01b037f000000000000000000000000000000000000000000000000000000000000000016146109ef5760405162461bcd60e51b81526004016103369190610fb9565b506040516376b42cad60e11b81526001600160a01b037f0000000000000000000000000000000000000000000000000000000000000000169063ed68595a90610a40908690869086906004016111d2565b600060405180830381600087803b158015610a5a57600080fd5b505af1158015610a6e573d6000803e3d6000fd5b50505050505050565b600063ffffffff821115610adc5760405162461bcd60e51b815260206004820152602660248201527f53616665436173743a2076616c756520646f65736e27742066697420696e203360448201526532206269747360d01b6064820152608401610336565b5090565b60006001600160801b03821115610adc5760405162461bcd60e51b815260206004820152602760248201527f53616665436173743a2076616c756520646f65736e27742066697420696e20316044820152663238206269747360c81b6064820152608401610336565b60606000610b7360408051600360f01b602082015281516002818303018152602290910190915290565b9050610b8181846000610b88565b9392505050565b6060836003610b98826000610bf0565b61ffff1614610bcc57610bac816000610bf0565b604051633a51740d60e01b815261ffff9091166004820152602401610336565b6000610bd88585610c4d565b9050610be686600183610cc5565b9695505050505050565b6000610bfd826002611019565b83511015610c445760405162461bcd60e51b8152602060048201526014602482015273746f55696e7431365f6f75744f66426f756e647360601b6044820152606401610336565b50016002015190565b60606001600160801b03821615610c9557604080516001600160801b0319608086811b8216602084015285901b16603082015201604051602081830303815290604052610b81565b6040516001600160801b0319608085901b1660208201526030016040516020818303038152906040529392505050565b6060836003610cd5826000610bf0565b61ffff1614610ce957610bac816000610bf0565b846001610cf68551610d30565b610d0190600161120b565b8686604051602001610d1795949392919061122d565b6040516020818303038152906040529150509392505050565b600061ffff821115610adc5760405162461bcd60e51b815260206004820152602660248201527f53616665436173743a2076616c756520646f65736e27742066697420696e203160448201526536206269747360d01b6064820152608401610336565b600060608284031215610da557600080fd5b50919050565b60008083601f840112610dbd57600080fd5b50813567ffffffffffffffff811115610dd557600080fd5b602083019150836020828501011115610ded57600080fd5b9250929050565b80356001600160a01b038116811461048357600080fd5b600080600080600080600060e0888a031215610e2657600080fd5b610e308989610d93565b965060608801359550608088013567ffffffffffffffff80821115610e5457600080fd5b610e608b838c01610dab565b9097509550859150610e7460a08b01610df4565b945060c08a0135915080821115610e8a57600080fd5b50610e978a828b01610dab565b989b979a50959850939692959293505050565b600060208284031215610ebc57600080fd5b5035919050565b600080600080600060808688031215610edb57600080fd5b610ee486610df4565b94506020860135935060408601359250606086013567ffffffffffffffff811115610f0e57600080fd5b610f1a88828901610dab565b969995985093965092949392505050565b803563ffffffff8116811461048357600080fd5b60008060408385031215610f5257600080fd5b610f5b83610f2b565b946020939093013593505050565b60005b83811015610f84578181015183820152602001610f6c565b50506000910152565b60008151808452610fa5816020860160208601610f69565b601f01601f19169290920160200192915050565b602081526000610b816020830184610f8d565b600060608284031215610fde57600080fd5b610b818383610d93565b600060208284031215610ffa57600080fd5b610b8182610f2b565b634e487b7160e01b600052601160045260246000fd5b808201808211156107e1576107e1611003565b6040815263ffffffff8351166040820152602083015160608201526000604084015160a0608084015261106260e0840182610f8d565b90506060850151603f198483030160a085015261107f8282610f8d565b60809690960151151560c08501525050506001600160a01b039190911660209091015290565b6000604082840312156110b757600080fd5b6040516040810181811067ffffffffffffffff821117156110e857634e487b7160e01b600052604160045260246000fd5b604052825181526020928301519281019290925250919050565b60006040828403121561111457600080fd5b610b8183836110a5565b60006080828403121561113057600080fd5b6040516060810167ffffffffffffffff828210818311171561116257634e487b7160e01b600052604160045260246000fd5b816040528451835260208501519150808216821461117f57600080fd5b50602082015261119284604085016110a5565b60408201529392505050565b600181811c908216806111b257607f821691505b602082108103610da557634e487b7160e01b600052602260045260246000fd5b604081528260408201528284606083013760006060848301015260006060601f19601f8601168301019050826020830152949350505050565b61ffff81811683821601908082111561122657611226611003565b5092915050565b6000865161123f818460208b01610f69565b6001600160f81b031960f888811b82169285019283526001600160f01b031960f089901b16600184015286901b1660038201528351611285816004840160208801610f69565b0160040197965050505050505056fea2646970667358221220ea737d08fc1277b88f93c1423bbc5896e69be0b9ffc132a771c1602ed91b934064736f6c63430008130033",
    "linkReferences": {}
  },
  "methodIdentifiers": {
    "BASE_GAS_LIMIT()": "81fbadad",
    "CROSS_CHAIN_CONTROLLER()": "c4956366",
    "LZ_ENDPOINT()": "cd4d1c64",
    "adapterName()": "ba286578",
    "allowInitializePath((uint32,bytes32,uint64))": "ff7bd03d",
    "forwardMessage(address,uint256,uint256,bytes)": "36da7a06",
    "getTrustedRemoteByChainId(uint256)": "b86a6161",
    "infraToNativeChainId(uint256)": "d6887581",
    "lzReceive((uint32,bytes32,uint64),bytes32,bytes,address,bytes)": "13137d65",
    "nativeToInfraChainId(uint256)": "1e02e77c",
    "nextNonce(uint32,bytes32)": "7d25a05e",
    "setupPayments()": "52d1043d"
  },
  "id": 73
}