{
  "abi": [
    {
      "type": "constructor",
      "inputs": [
        {
          "name": "lzEndpoint",
          "type": "address",
          "internalType": "address"
        },
        {
          "name": "crossChainController",
          "type": "address",
          "internalType": "address"
        },
        {
          "name": "providerGasLimit",
          "type": "uint256",
          "internalType": "uint256"
        },
        {
          "name": "originConfigs",
          "type": "tuple[]",
          "internalType": "struct IBaseAdapter.TrustedRemotesConfig[]",
          "components": [
            {
              "name": "originForwarder",
              "type": "address",
              "internalType": "address"
            },
            {
              "name": "originChainId",
              "type": "uint256",
              "internalType": "uint256"
            }
          ]
        }
      ],
      "stateMutability": "nonpayable"
    },
    {
      "type": "function",
      "name": "BASE_GAS_LIMIT",
      "inputs": [],
      "outputs": [
        {
          "name": "",
          "type": "uint256",
          "internalType": "uint256"
        }
      ],
      "stateMutability": "view"
    },
    {
      "type": "function",
      "name": "CROSS_CHAIN_CONTROLLER",
      "inputs": [],
      "outputs": [
        {
          "name": "",
          "type": "address",
          "internalType": "contract IBaseCrossChainController"
        }
      ],
      "stateMutability": "view"
    },
    {
      "type": "function",
      "name": "LZ_ENDPOINT",
      "inputs": [],
      "outputs": [
        {
          "name": "",
          "type": "address",
          "internalType": "contract ILayerZeroEndpointV2"
        }
      ],
      "stateMutability": "view"
    },
    {
      "type": "function",
      "name": "adapterName",
      "inputs": [],
      "outputs": [
        {
          "name": "",
          "type": "string",
          "internalType": "string"
        }
      ],
      "stateMutability": "view"
    },
    {
      "type": "function",
      "name": "allowInitializePath",
      "inputs": [
        {
          "name": "origin",
          "type": "tuple",
          "internalType": "struct Origin",
          "components": [
            {
              "name": "srcEid",
              "type": "uint32",
              "internalType": "uint32"
            },
            {
              "name": "sender",
              "type": "bytes32",
              "internalType": "bytes32"
            },
            {
              "name": "nonce",
              "type": "uint64",
              "internalType": "uint64"
            }
          ]
        }
      ],
      "outputs": [
        {
          "name": "",
          "type": "bool",
          "internalType": "bool"
        }
      ],
      "stateMutability": "view"
    },
    {
      "type": "function",
      "name": "forwardMessage",
      "inputs": [
        {
          "name": "receiver",
          "type": "address",
          "internalType": "address"
        },
        {
          "name": "executionGasLimit",
          "type": "uint256",
          "internalType": "uint256"
        },
        {
          "name": "destinationChainId",
          "type": "uint256",
          "internalType": "uint256"
        },
        {
          "name": "message",
          "type": "bytes",
          "internalType": "bytes"
        }
      ],
      "outputs": [
        {
          "name": "",
          "type": "address",
          "internalType": "address"
        },
        {
          "name": "",
          "type": "uint256",
          "internalType": "uint256"
        }
      ],
      "stateMutability": "nonpayable"
    },
    {
      "type": "function",
      "name": "getTrustedRemoteByChainId",
      "inputs": [
        {
          "name": "chainId",
          "type": "uint256",
          "internalType": "uint256"
        }
      ],
      "outputs": [
        {
          "name": "",
          "type": "address",
          "internalType": "address"
        }
      ],
      "stateMutability": "view"
    },
    {
      "type": "function",
      "name": "infraToNativeChainId",
      "inputs": [
        {
          "name": "infraChainId",
          "type": "uint256",
          "internalType": "uint256"
        }
      ],
      "outputs": [
        {
          "name": "",
          "type": "uint256",
          "internalType": "uint256"
        }
      ],
      "stateMutability": "pure"
    },
    {
      "type": "function",
      "name": "lzReceive",
      "inputs": [
        {
          "name": "_origin",
          "type": "tuple",
          "internalType": "struct Origin",
          "components": [
            {
              "name": "srcEid",
              "type": "uint32",
              "internalType": "uint32"
            },
            {
              "name": "sender",
              "type": "bytes32",
              "internalType": "bytes32"
            },
            {
              "name": "nonce",
              "type": "uint64",
              "internalType": "uint64"
            }
          ]
        },
        {
          "name": "",
          "type": "bytes32",
          "internalType": "bytes32"
        },
        {
          "name": "_message",
          "type": "bytes",
          "internalType": "bytes"
        },
        {
          "name": "",
          "type": "address",
          "internalType": "address"
        },
        {
          "name": "",
          "type": "bytes",
          "internalType": "bytes"
        }
      ],
      "outputs": [],
      "stateMutability": "payable"
    },
    {
      "type": "function",
      "name": "nativeToInfraChainId",
      "inputs": [
        {
          "name": "nativeChainId",
          "type": "uint256",
          "internalType": "uint256"
        }
      ],
      "outputs": [
        {
          "name": "",
          "type": "uint256",
          "internalType": "uint256"
        }
      ],
      "stateMutability": "pure"
    },
    {
      "type": "function",
      "name": "nextNonce",
      "inputs": [
        {
          "name": "",
          "type": "uint32",
          "internalType": "uint32"
        },
        {
          "name": "",
          "type": "bytes32",
          "internalType": "bytes32"
        }
      ],
      "outputs": [
        {
          "name": "",
          "type": "uint64",
          "internalType": "uint64"
        }
      ],
      "stateMutability": "pure"
    },
    {
      "type": "function",
      "name": "setupPayments",
      "inputs": [],
      "outputs": [],
      "stateMutability": "nonpayable"
    },
    {
      "type": "event",
      "name": "SetTrustedRemote",
      "inputs": [
        {
          "name": "originChainId",
          "type": "uint256",
          "indexed": false,
          "internalType": "uint256"
        },
        {
          "name": "originForwarder",
          "type": "address",
          "indexed": false,
          "internalType": "address"
        }
      ],
      "anonymous": false
    },
    {
      "type": "error",
      "name": "InvalidOptionType",
      "inputs": [
        {
          "name": "optionType",
          "type": "uint16",
          "internalType": "uint16"
        }
      ]
    }
  ],
  "bytecode": {
    "object": "0x6101006040523480156200001257600080fd5b50604051620018fc380380620018fc8339810160408190526200003591620002e8565b838383838282604051806040016040528060118152602001702630bcb2b92d32b9379030b230b83a32b960791b8152508360006001600160a01b0316846001600160a01b0316141560405180604001604052806002815260200161323360f01b81525090620000c25760405162461bcd60e51b8152600401620000b99190620003fb565b60405180910390fd5b506001600160a01b03841660805260a08390526001620000e38382620004da565b503060c05260005b8151811015620001f35760008282815181106200010c576200010c620005a6565b6020026020010151905060006001600160a01b031681600001516001600160a01b0316141560405180604001604052806002815260200161323760f01b815250906200016d5760405162461bcd60e51b8152600401620000b99190620003fb565b50805160208083018051600090815280835260409081902080546001600160a01b0319166001600160a01b03958616179055905184518251918252909316918301919091527fa214744f665691ef0eb9e4277cfa3c9198106c8925d6fa6880b6813f705c1aab910160405180910390a15080620001ea81620005bc565b915050620000eb565b5050604080518082019091526002815261191b60f11b6020820152925050506001600160a01b0385166200023c5760405162461bcd60e51b8152600401620000b99190620003fb565b505050506001600160a01b031660e05250620005e492505050565b80516001600160a01b03811681146200026f57600080fd5b919050565b634e487b7160e01b600052604160045260246000fd5b604080519081016001600160401b0381118282101715620002af57620002af62000274565b60405290565b604051601f8201601f191681016001600160401b0381118282101715620002e057620002e062000274565b604052919050565b60008060008060808587031215620002ff57600080fd5b6200030a8562000257565b935060206200031b81870162000257565b60408781015160608901519296509450906001600160401b03808211156200034257600080fd5b818901915089601f8301126200035757600080fd5b8151818111156200036c576200036c62000274565b6200037c858260051b01620002b5565b818152858101925060069190911b83018501908b8211156200039d57600080fd5b928501925b81841015620003eb5784848d031215620003bc5760008081fd5b620003c66200028a565b620003d18562000257565b8152848701518782015283529284019291850191620003a2565b989b979a50959850505050505050565b600060208083528351808285015260005b818110156200042a578581018301518582016040015282016200040c565b506000604082860101526040601f19601f8301168501019250505092915050565b600181811c908216806200046057607f821691505b6020821081036200048157634e487b7160e01b600052602260045260246000fd5b50919050565b601f821115620004d557600081815260208120601f850160051c81016020861015620004b05750805b601f850160051c820191505b81811015620004d157828155600101620004bc565b5050505b505050565b81516001600160401b03811115620004f657620004f662000274565b6200050e816200050784546200044b565b8462000487565b602080601f8311600181146200054657600084156200052d5750858301515b600019600386901b1c1916600185901b178555620004d1565b600085815260208120601f198616915b82811015620005775788860151825594840194600190910190840162000556565b5085821015620005965787850151600019600388901b60f8161c191681555b5050505050600190811b01905550565b634e487b7160e01b600052603260045260246000fd5b600060018201620005dd57634e487b7160e01b600052601160045260246000fd5b5060010190565b60805160a05160c05160e0516112b46200064860003960008181610262015281816102f8015281816105650152818161069801526107960152600061099b01526000818161018a015261052501526000818161022e01526109f101526112b46000f3fe6080604052600436106100a75760003560e01c8063b86a616111610064578063b86a6161146101ac578063ba286578146101fa578063c49563661461021c578063cd4d1c6414610250578063d688758114610284578063ff7bd03d146102a457600080fd5b806313137d65146100ac5780631e02e77c146100c157806336da7a06146100f457806352d1043d146101335780637d25a05e1461013f57806381fbadad14610178575b600080fd5b6100bf6100ba366004610df5565b6102d4565b005b3480156100cd57600080fd5b506100e16100dc366004610e94565b6103b7565b6040519081526020015b60405180910390f35b34801561010057600080fd5b5061011461010f366004610ead565b61047d565b604080516001600160a01b0390931683526020830191909152016100eb565b3480156100bf57600080fd5b34801561014b57600080fd5b5061015f61015a366004610f29565b6107d3565b60405167ffffffffffffffff90911681526020016100eb565b34801561018457600080fd5b506100e17f000000000000000000000000000000000000000000000000000000000000000081565b3480156101b857600080fd5b506101e26101c7366004610e94565b6000908152602081905260409020546001600160a01b031690565b6040516001600160a01b0390911681526020016100eb565b34801561020657600080fd5b5061020f6107dc565b6040516100eb9190610fa3565b34801561022857600080fd5b506101e27f000000000000000000000000000000000000000000000000000000000000000081565b34801561025c57600080fd5b506101e27f000000000000000000000000000000000000000000000000000000000000000081565b34801561029057600080fd5b506100e161029f366004610e94565b61086a565b3480156102b057600080fd5b506102c46102bf366004610fb6565b610923565b60405190151581526020016100eb565b604080518082019091526002815261323560f01b6020820152336001600160a01b037f0000000000000000000000000000000000000000000000000000000000000000161461033f5760405162461bcd60e51b81526004016103369190610fa3565b60405180910390fd5b50600061035d61035260208a018a610fd2565b63ffffffff166103b7565b905061036888610923565b60405180604001604052806002815260200161189960f11b815250906103a15760405162461bcd60e51b81526004016103369190610fa3565b506103ad868683610977565b5050505050505050565b600081619caa036103cb575061a869919050565b81619d28036103de575062aa37dc919050565b81619cad036103f1575062013881919050565b81619d2703610404575062066eee919050565b81619cb0036104165750610fa2919050565b81619ce103610429575062aa36a7919050565b81619ca60361043a57506061919050565b81619cd70361044c5750610257919050565b81619cd10361045e57506127d8919050565b81619cbd03610470575061aef3919050565b506000919050565b919050565b600080600061049361048e8761086a565b610a61565b604080518082019091526002815261031360f41b602082015290915063ffffffff82166104d35760405162461bcd60e51b81526004016103369190610fa3565b506040805180820190915260018152603960f81b60208201526001600160a01b0389166105135760405162461bcd60e51b81526004016103369190610fa3565b506001600160a01b038816600061054a7f00000000000000000000000000000000000000000000000000000000000000008a611003565b9050600061055f61055a83610aca565b610b33565b905060007f00000000000000000000000000000000000000000000000000000000000000006001600160a01b031663ddc28c586040518060a001604052808863ffffffff1681526020018781526020018c8c8080601f016020809104026020016040519081016040528093929190818152602001838380828437600092018290525093855250505060208201879052604091820152516001600160e01b031960e084901b16815261061591903090600401611016565b6040805180830381865afa158015610631573d6000803e3d6000fd5b505050506040513d601f19601f8201168201806040525081019061065591906110ec565b8051604080518082019091526002815261313160f01b60208201529192504710156106935760405162461bcd60e51b81526004016103369190610fa3565b5060007f00000000000000000000000000000000000000000000000000000000000000006001600160a01b0316632637a45083600001516040518060a001604052808a63ffffffff1681526020018981526020018e8e8080601f016020809104026020016040519081016040528093929190818152602001838380828437600092018290525093855250505060208201899052604091820152516001600160e01b031960e085901b16815261074d91903090600401611016565b60806040518083038185885af115801561076b573d6000803e3d6000fd5b50505050506040513d601f19601f820116820180604052508101906107909190611108565b602001517f0000000000000000000000000000000000000000000000000000000000000000985067ffffffffffffffff1696505050505050509550959350505050565b60005b92915050565b600180546107e990611188565b80601f016020809104026020016040519081016040528092919081815260200182805461081590611188565b80156108625780601f1061083757610100808354040283529160200191610862565b820191906000526020600020905b81548152906001019060200180831161084557829003601f168201915b505050505081565b600061a869820361087e5750619caa919050565b62aa37dc82036108915750619d28919050565b6201388182036108a45750619cad919050565b62066eee82036108b75750619d27919050565b610fa282036108c95750619cb0919050565b62aa36a782036108dc5750619ce1919050565b61025782036108ee5750619cd7919050565b606182036108ff5750619ca6919050565b6127d882036109115750619cd1919050565b61aef382036104705750619cbd919050565b6000806109366103526020850185610fd2565b60008181526020818152604090912054919250840135906001600160a01b03808316911614801561096f57506001600160a01b03811615155b949350505050565b6040805180820190915260028152610c8d60f21b6020820152306001600160a01b037f000000000000000000000000000000000000000000000000000000000000000016146109d95760405162461bcd60e51b81526004016103369190610fa3565b506040516376b42cad60e11b81526001600160a01b037f0000000000000000000000000000000000000000000000000000000000000000169063ed68595a90610a2a908690869086906004016111bc565b600060405180830381600087803b158015610a4457600080fd5b505af1158015610a58573d6000803e3d6000fd5b50505050505050565b600063ffffffff821115610ac65760405162461bcd60e51b815260206004820152602660248201527f53616665436173743a2076616c756520646f65736e27742066697420696e203360448201526532206269747360d01b6064820152608401610336565b5090565b60006001600160801b03821115610ac65760405162461bcd60e51b815260206004820152602760248201527f53616665436173743a2076616c756520646f65736e27742066697420696e20316044820152663238206269747360c81b6064820152608401610336565b60606000610b5d60408051600360f01b602082015281516002818303018152602290910190915290565b9050610b6b81846000610b72565b9392505050565b6060836003610b82826000610bda565b61ffff1614610bb657610b96816000610bda565b604051633a51740d60e01b815261ffff9091166004820152602401610336565b6000610bc28585610c37565b9050610bd086600183610caf565b9695505050505050565b6000610be7826002611003565b83511015610c2e5760405162461bcd60e51b8152602060048201526014602482015273746f55696e7431365f6f75744f66426f756e647360601b6044820152606401610336565b50016002015190565b60606001600160801b03821615610c7f57604080516001600160801b0319608086811b8216602084015285901b16603082015201604051602081830303815290604052610b6b565b6040516001600160801b0319608085901b1660208201526030016040516020818303038152906040529392505050565b6060836003610cbf826000610bda565b61ffff1614610cd357610b96816000610bda565b846001610ce08551610d1a565b610ceb9060016111f5565b8686604051602001610d01959493929190611217565b6040516020818303038152906040529150509392505050565b600061ffff821115610ac65760405162461bcd60e51b815260206004820152602660248201527f53616665436173743a2076616c756520646f65736e27742066697420696e203160448201526536206269747360d01b6064820152608401610336565b600060608284031215610d8f57600080fd5b50919050565b60008083601f840112610da757600080fd5b50813567ffffffffffffffff811115610dbf57600080fd5b602083019150836020828501011115610dd757600080fd5b9250929050565b80356001600160a01b038116811461047857600080fd5b600080600080600080600060e0888a031215610e1057600080fd5b610e1a8989610d7d565b965060608801359550608088013567ffffffffffffffff80821115610e3e57600080fd5b610e4a8b838c01610d95565b9097509550859150610e5e60a08b01610dde565b945060c08a0135915080821115610e7457600080fd5b50610e818a828b01610d95565b989b979a50959850939692959293505050565b600060208284031215610ea657600080fd5b5035919050565b600080600080600060808688031215610ec557600080fd5b610ece86610dde565b94506020860135935060408601359250606086013567ffffffffffffffff811115610ef857600080fd5b610f0488828901610d95565b969995985093965092949392505050565b803563ffffffff8116811461047857600080fd5b60008060408385031215610f3c57600080fd5b610f4583610f15565b946020939093013593505050565b60005b83811015610f6e578181015183820152602001610f56565b50506000910152565b60008151808452610f8f816020860160208601610f53565b601f01601f19169290920160200192915050565b602081526000610b6b6020830184610f77565b600060608284031215610fc857600080fd5b610b6b8383610d7d565b600060208284031215610fe457600080fd5b610b6b82610f15565b634e487b7160e01b600052601160045260246000fd5b808201808211156107d6576107d6610fed565b6040815263ffffffff8351166040820152602083015160608201526000604084015160a0608084015261104c60e0840182610f77565b90506060850151603f198483030160a08501526110698282610f77565b60809690960151151560c08501525050506001600160a01b039190911660209091015290565b6000604082840312156110a157600080fd5b6040516040810181811067ffffffffffffffff821117156110d257634e487b7160e01b600052604160045260246000fd5b604052825181526020928301519281019290925250919050565b6000604082840312156110fe57600080fd5b610b6b838361108f565b60006080828403121561111a57600080fd5b6040516060810167ffffffffffffffff828210818311171561114c57634e487b7160e01b600052604160045260246000fd5b816040528451835260208501519150808216821461116957600080fd5b50602082015261117c846040850161108f565b60408201529392505050565b600181811c9082168061119c57607f821691505b602082108103610d8f57634e487b7160e01b600052602260045260246000fd5b604081528260408201528284606083013760006060848301015260006060601f19601f8601168301019050826020830152949350505050565b61ffff81811683821601908082111561121057611210610fed565b5092915050565b60008651611229818460208b01610f53565b6001600160f81b031960f888811b82169285019283526001600160f01b031960f089901b16600184015286901b166003820152835161126f816004840160208801610f53565b0160040197965050505050505056fea264697066735822122016346ee377f56a7e4e8a3a4912474510660c510b29c4d457e23c25bc9e3205a764736f6c63430008130033",
    "linkReferences": {}
  },
  "methodIdentifiers": {
    "BASE_GAS_LIMIT()": "81fbadad",
    "CROSS_CHAIN_CONTROLLER()": "c4956366",
    "LZ_ENDPOINT()": "cd4d1c64",
    "adapterName()": "ba286578",
    "allowInitializePath((uint32,bytes32,uint64))": "ff7bd03d",
    "forwardMessage(address,uint256,uint256,bytes)": "36da7a06",
    "getTrustedRemoteByChainId(uint256)": "b86a6161",
    "infraToNativeChainId(uint256)": "d6887581",
    "lzReceive((uint32,bytes32,uint64),bytes32,bytes,address,bytes)": "13137d65",
    "nativeToInfraChainId(uint256)": "1e02e77c",
    "nextNonce(uint32,bytes32)": "7d25a05e",
    "setupPayments()": "52d1043d"
  },
  "id": 20
}