{
  "abi": [
    {
      "type": "constructor",
      "inputs": [
        {
          "name": "crossChainController",
          "type": "address",
          "internalType": "address"
        },
        {
          "name": "ccipRouter",
          "type": "address",
          "internalType": "address"
        },
        {
          "name": "providerGasLimit",
          "type": "uint256",
          "internalType": "uint256"
        },
        {
          "name": "trustedRemotes",
          "type": "tuple[]",
          "internalType": "struct IBaseAdapter.TrustedRemotesConfig[]",
          "components": [
            {
              "name": "originForwarder",
              "type": "address",
              "internalType": "address"
            },
            {
              "name": "originChainId",
              "type": "uint256",
              "internalType": "uint256"
            }
          ]
        },
        {
          "name": "linkToken",
          "type": "address",
          "internalType": "address"
        }
      ],
      "stateMutability": "nonpayable"
    },
    {
      "type": "function",
      "name": "BASE_GAS_LIMIT",
      "inputs": [],
      "outputs": [
        {
          "name": "",
          "type": "uint256",
          "internalType": "uint256"
        }
      ],
      "stateMutability": "view"
    },
    {
      "type": "function",
      "name": "CCIP_ROUTER",
      "inputs": [],
      "outputs": [
        {
          "name": "",
          "type": "address",
          "internalType": "contract IRouterClient"
        }
      ],
      "stateMutability": "view"
    },
    {
      "type": "function",
      "name": "CROSS_CHAIN_CONTROLLER",
      "inputs": [],
      "outputs": [
        {
          "name": "",
          "type": "address",
          "internalType": "contract IBaseCrossChainController"
        }
      ],
      "stateMutability": "view"
    },
    {
      "type": "function",
      "name": "LINK_TOKEN",
      "inputs": [],
      "outputs": [
        {
          "name": "",
          "type": "address",
          "internalType": "contract IERC20"
        }
      ],
      "stateMutability": "view"
    },
    {
      "type": "function",
      "name": "adapterName",
      "inputs": [],
      "outputs": [
        {
          "name": "",
          "type": "string",
          "internalType": "string"
        }
      ],
      "stateMutability": "view"
    },
    {
      "type": "function",
      "name": "ccipReceive",
      "inputs": [
        {
          "name": "message",
          "type": "tuple",
          "internalType": "struct Client.Any2EVMMessage",
          "components": [
            {
              "name": "messageId",
              "type": "bytes32",
              "internalType": "bytes32"
            },
            {
              "name": "sourceChainSelector",
              "type": "uint64",
              "internalType": "uint64"
            },
            {
              "name": "sender",
              "type": "bytes",
              "internalType": "bytes"
            },
            {
              "name": "data",
              "type": "bytes",
              "internalType": "bytes"
            },
            {
              "name": "tokenAmounts",
              "type": "tuple[]",
              "internalType": "struct Client.EVMTokenAmount[]",
              "components": [
                {
                  "name": "token",
                  "type": "address",
                  "internalType": "address"
                },
                {
                  "name": "amount",
                  "type": "uint256",
                  "internalType": "uint256"
                }
              ]
            }
          ]
        }
      ],
      "outputs": [],
      "stateMutability": "nonpayable"
    },
    {
      "type": "function",
      "name": "forwardMessage",
      "inputs": [
        {
          "name": "receiver",
          "type": "address",
          "internalType": "address"
        },
        {
          "name": "executionGasLimit",
          "type": "uint256",
          "internalType": "uint256"
        },
        {
          "name": "destinationChainId",
          "type": "uint256",
          "internalType": "uint256"
        },
        {
          "name": "message",
          "type": "bytes",
          "internalType": "bytes"
        }
      ],
      "outputs": [
        {
          "name": "",
          "type": "address",
          "internalType": "address"
        },
        {
          "name": "",
          "type": "uint256",
          "internalType": "uint256"
        }
      ],
      "stateMutability": "nonpayable"
    },
    {
      "type": "function",
      "name": "getTrustedRemoteByChainId",
      "inputs": [
        {
          "name": "chainId",
          "type": "uint256",
          "internalType": "uint256"
        }
      ],
      "outputs": [
        {
          "name": "",
          "type": "address",
          "internalType": "address"
        }
      ],
      "stateMutability": "view"
    },
    {
      "type": "function",
      "name": "infraToNativeChainId",
      "inputs": [
        {
          "name": "infraChainId",
          "type": "uint256",
          "internalType": "uint256"
        }
      ],
      "outputs": [
        {
          "name": "",
          "type": "uint256",
          "internalType": "uint256"
        }
      ],
      "stateMutability": "pure"
    },
    {
      "type": "function",
      "name": "nativeToInfraChainId",
      "inputs": [
        {
          "name": "nativeChainId",
          "type": "uint256",
          "internalType": "uint256"
        }
      ],
      "outputs": [
        {
          "name": "",
          "type": "uint256",
          "internalType": "uint256"
        }
      ],
      "stateMutability": "pure"
    },
    {
      "type": "function",
      "name": "setupPayments",
      "inputs": [],
      "outputs": [],
      "stateMutability": "nonpayable"
    },
    {
      "type": "function",
      "name": "supportsInterface",
      "inputs": [
        {
          "name": "interfaceId",
          "type": "bytes4",
          "internalType": "bytes4"
        }
      ],
      "outputs": [
        {
          "name": "",
          "type": "bool",
          "internalType": "bool"
        }
      ],
      "stateMutability": "pure"
    },
    {
      "type": "event",
      "name": "SetTrustedRemote",
      "inputs": [
        {
          "name": "originChainId",
          "type": "uint256",
          "indexed": false,
          "internalType": "uint256"
        },
        {
          "name": "originForwarder",
          "type": "address",
          "indexed": false,
          "internalType": "address"
        }
      ],
      "anonymous": false
    },
    {
      "type": "error",
      "name": "SafeERC20FailedOperation",
      "inputs": [
        {
          "name": "token",
          "type": "address",
          "internalType": "address"
        }
      ]
    }
  ],
  "bytecode": {
    "object": "0x6101206040523480156200001257600080fd5b5060405162001a3b38038062001a3b833981016040819052620000359162000331565b848484848484836040518060400160405280600c81526020016b21a1a4a81030b230b83a32b960a11b8152508460006001600160a01b0316846001600160a01b0316141560405180604001604052806002815260200161323360f01b81525090620000be5760405162461bcd60e51b8152600401620000b5919062000459565b60405180910390fd5b506001600160a01b03841660805260a08390526001620000df838262000538565b503060c05260005b8151811015620001ef57600082828151811062000108576200010862000604565b6020026020010151905060006001600160a01b031681600001516001600160a01b0316141560405180604001604052806002815260200161323760f01b81525090620001695760405162461bcd60e51b8152600401620000b5919062000459565b50805160208083018051600090815280835260409081902080546001600160a01b0319166001600160a01b03958616179055905184518251918252909316918301919091527fa214744f665691ef0eb9e4277cfa3c9198106c8925d6fa6880b6813f705c1aab910160405180910390a15080620001e6816200061a565b915050620000e7565b50506040805180820190915260018152600760fb1b6020820152925050506001600160a01b038516620002375760405162461bcd60e51b8152600401620000b5919062000459565b50604080518082019091526002815261033360f41b60208201526001600160a01b0382166200027b5760405162461bcd60e51b8152600401620000b5919062000459565b506001600160a01b0393841660e0529092166101005250620006429650505050505050565b80516001600160a01b0381168114620002b857600080fd5b919050565b634e487b7160e01b600052604160045260246000fd5b604080519081016001600160401b0381118282101715620002f857620002f8620002bd565b60405290565b604051601f8201601f191681016001600160401b0381118282101715620003295762000329620002bd565b604052919050565b600080600080600060a086880312156200034a57600080fd5b6200035586620002a0565b9450602062000366818801620002a0565b60408881015160608a01519297509550906001600160401b03808211156200038d57600080fd5b818a0191508a601f830112620003a257600080fd5b815181811115620003b757620003b7620002bd565b620003c7858260051b01620002fe565b818152858101925060069190911b83018501908c821115620003e857600080fd5b928501925b81841015620004365784848e031215620004075760008081fd5b62000411620002d3565b6200041c85620002a0565b8152848701518782015283529284019291850191620003ed565b8097505050505050506200044d60808701620002a0565b90509295509295909350565b600060208083528351808285015260005b8181101562000488578581018301518582016040015282016200046a565b506000604082860101526040601f19601f8301168501019250505092915050565b600181811c90821680620004be57607f821691505b602082108103620004df57634e487b7160e01b600052602260045260246000fd5b50919050565b601f8211156200053357600081815260208120601f850160051c810160208610156200050e5750805b601f850160051c820191505b818110156200052f578281556001016200051a565b5050505b505050565b81516001600160401b03811115620005545762000554620002bd565b6200056c81620005658454620004a9565b84620004e5565b602080601f831160018114620005a457600084156200058b5750858301515b600019600386901b1c1916600185901b1785556200052f565b600085815260208120601f198616915b82811015620005d557888601518255948401946001909101908401620005b4565b5085821015620005f45787850151600019600388901b60f8161c191681555b5050505050600190811b01905550565b634e487b7160e01b600052603260045260246000fd5b6000600182016200063b57634e487b7160e01b600052601160045260246000fd5b5060010190565b60805160a05160c05160e05161010051611367620006d46000396000818161020d015281816105660152818161067c0152610801015260008181610234015281816103300152818161059d01528181610745015281816107c101528181610823015261086f01526000610bb1015260008181610143015261042d0152600081816101d30152610c0701526113676000f3fe608060405234801561001057600080fd5b50600436106100b45760003560e01c8063b86a616111610071578063b86a616114610178578063ba286578146101b9578063c4956366146101ce578063d6887581146101f5578063eedac3a614610208578063fe5f42ca1461022f57600080fd5b806301ffc9a7146100b95780631e02e77c146100e157806336da7a061461010257806352d1043d1461013457806381fbadad1461013e57806385572ffb14610165575b600080fd5b6100cc6100c7366004610f48565b610256565b60405190151581526020015b60405180910390f35b6100f46100ef366004610f72565b61028d565b6040519081526020016100d8565b610115610110366004610fa3565b6102f8565b604080516001600160a01b0390931683526020830191909152016100d8565b61013c6107f4565b005b6100f47f000000000000000000000000000000000000000000000000000000000000000081565b61013c610173366004611039565b61084c565b6101a1610186366004610f72565b6000908152602081905260409020546001600160a01b031690565b6040516001600160a01b0390911681526020016100d8565b6101c1610979565b6040516100d891906110c4565b6101a17f000000000000000000000000000000000000000000000000000000000000000081565b6100f4610203366004610f72565b610a07565b6101a17f000000000000000000000000000000000000000000000000000000000000000081565b6101a17f000000000000000000000000000000000000000000000000000000000000000081565b60006001600160e01b031982166385572ffb60e01b148061028757506001600160e01b031982166301ffc9a760e01b145b92915050565b600067de41ba4fc9d91ad81982016102a9575062aa36a7919050565b67ccf0a31a221f3c9a1982016102c2575061a869919050565b67adecc60412ce25a41982016102dc575062013881919050565b67b8159170038f96fa1982016102f457506061919050565b5090565b600080600061030e61030987610a07565b610a6a565b604051631491520b60e31b815267ffffffffffffffff821660048201529091507f00000000000000000000000000000000000000000000000000000000000000006001600160a01b03169063a48a905890602401602060405180830381865afa15801561037f573d6000803e3d6000fd5b505050506040513d601f19601f820116820180604052508101906103a391906110d7565b60405180604001604052806002815260200161031360f41b815250906103e55760405162461bcd60e51b81526004016103dc91906110c4565b60405180910390fd5b506040805180820190915260018152603960f81b60208201526001600160a01b0389166104255760405162461bcd60e51b81526004016103dc91906110c4565b5060006104527f0000000000000000000000000000000000000000000000000000000000000000896110f9565b6040805180820182528281526000602080830182815284516024810187905290511515604480830191909152855180830390910181526064909101909452830180516001600160e01b03166397a657c960e01b17905292935091906040805160a081019091526001600160a01b038d1660c08201529091506000908060e0810160405160208183030381529060405281526020018a8a8080601f0160208091040260200160405190810160405280939291908181526020018383808284376000920182905250938552505060408051838152602081810190925293019291905061055e565b60408051808201909152600080825260208201528152602001906001900390816105375790505b5081526020017f00000000000000000000000000000000000000000000000000000000000000006001600160a01b0316815260200183815250905060007f00000000000000000000000000000000000000000000000000000000000000006001600160a01b03166320487ded87846040518363ffffffff1660e01b81526004016105e992919061111a565b602060405180830381865afa158015610606573d6000803e3d6000fd5b505050506040513d601f19601f8201168201806040525081019061062a91906111f4565b604080518082019091526002815261333160f01b6020820152909150816106645760405162461bcd60e51b81526004016103dc91906110c4565b506040516370a0823160e01b815230600482015281907f00000000000000000000000000000000000000000000000000000000000000006001600160a01b0316906370a0823190602401602060405180830381865afa1580156106cb573d6000803e3d6000fd5b505050506040513d601f19601f820116820180604052508101906106ef91906111f4565b101560405180604001604052806002815260200161313160f01b8152509061072a5760405162461bcd60e51b81526004016103dc91906110c4565b506040516396f4e9f960e01b81526000906001600160a01b037f000000000000000000000000000000000000000000000000000000000000000016906396f4e9f99061077c908a90879060040161111a565b6020604051808303816000875af115801561079b573d6000803e3d6000fd5b505050506040513d601f19601f820116820180604052508101906107bf91906111f4565b7f00000000000000000000000000000000000000000000000000000000000000009f909e509c50505050505050505050505050565b61084a6001600160a01b037f0000000000000000000000000000000000000000000000000000000000000000167f0000000000000000000000000000000000000000000000000000000000000000600019610ad3565b565b6040805180820190915260018152603760f81b6020820152336001600160a01b037f000000000000000000000000000000000000000000000000000000000000000016146108ad5760405162461bcd60e51b81526004016103dc91906110c4565b5060006108bd604083018361120d565b8101906108ca919061125b565b905060006108f06108e16040850160208601611278565b67ffffffffffffffff1661028d565b6000818152602081905260409020549091506001600160a01b03838116911614801561092457506001600160a01b03821615155b60405180604001604052806002815260200161189960f11b8152509061095d5760405162461bcd60e51b81526004016103dc91906110c4565b5061097461096e606085018561120d565b83610b8d565b505050565b60018054610986906112a2565b80601f01602080910402602001604051908101604052809291908181526020018280546109b2906112a2565b80156109ff5780601f106109d4576101008083540402835291602001916109ff565b820191906000526020600020905b8154815290600101906020018083116109e257829003601f168201915b505050505081565b600062aa36a78203610a22575067de41ba4fc9d91ad9919050565b61a8698203610a3a575067ccf0a31a221f3c9b919050565b620138818203610a53575067adecc60412ce25a5919050565b606182036102f4575067b8159170038f96fb919050565b600067ffffffffffffffff8211156102f45760405162461bcd60e51b815260206004820152602660248201527f53616665436173743a2076616c756520646f65736e27742066697420696e203660448201526534206269747360d01b60648201526084016103dc565b604080516001600160a01b038416602482015260448082018490528251808303909101815260649091019091526020810180516001600160e01b031663095ea7b360e01b179052610b248482610c77565b610b8757604080516001600160a01b038516602482015260006044808301919091528251808303909101815260649091019091526020810180516001600160e01b031663095ea7b360e01b179052610b7d908590610d1f565b610b878482610d1f565b50505050565b6040805180820190915260028152610c8d60f21b6020820152306001600160a01b037f00000000000000000000000000000000000000000000000000000000000000001614610bef5760405162461bcd60e51b81526004016103dc91906110c4565b506040516376b42cad60e11b81526001600160a01b037f0000000000000000000000000000000000000000000000000000000000000000169063ed68595a90610c40908690869086906004016112dc565b600060405180830381600087803b158015610c5a57600080fd5b505af1158015610c6e573d6000803e3d6000fd5b50505050505050565b6000806000846001600160a01b031684604051610c949190611315565b6000604051808303816000865af19150503d8060008114610cd1576040519150601f19603f3d011682016040523d82523d6000602084013e610cd6565b606091505b5091509150818015610d00575080511580610d00575080806020019051810190610d0091906110d7565b8015610d1657506000856001600160a01b03163b115b95945050505050565b6000610d346001600160a01b03841683610d82565b90508051600014158015610d59575080806020019051810190610d5791906110d7565b155b1561097457604051635274afe760e01b81526001600160a01b03841660048201526024016103dc565b6060610dc6838360006040518060400160405280601e81526020017f416464726573733a206c6f772d6c6576656c2063616c6c206661696c65640000815250610dcd565b9392505050565b606082471015610e2e5760405162461bcd60e51b815260206004820152602660248201527f416464726573733a20696e73756666696369656e742062616c616e636520666f6044820152651c8818d85b1b60d21b60648201526084016103dc565b600080866001600160a01b03168587604051610e4a9190611315565b60006040518083038185875af1925050503d8060008114610e87576040519150601f19603f3d011682016040523d82523d6000602084013e610e8c565b606091505b5091509150610e9d87838387610eaa565b925050505b949350505050565b60608315610f19578251600003610f12576001600160a01b0385163b610f125760405162461bcd60e51b815260206004820152601d60248201527f416464726573733a2063616c6c20746f206e6f6e2d636f6e747261637400000060448201526064016103dc565b5081610ea2565b610ea28383815115610f2e5781518083602001fd5b8060405162461bcd60e51b81526004016103dc91906110c4565b600060208284031215610f5a57600080fd5b81356001600160e01b031981168114610dc657600080fd5b600060208284031215610f8457600080fd5b5035919050565b6001600160a01b0381168114610fa057600080fd5b50565b600080600080600060808688031215610fbb57600080fd5b8535610fc681610f8b565b94506020860135935060408601359250606086013567ffffffffffffffff80821115610ff157600080fd5b818801915088601f83011261100557600080fd5b81358181111561101457600080fd5b89602082850101111561102657600080fd5b9699959850939650602001949392505050565b60006020828403121561104b57600080fd5b813567ffffffffffffffff81111561106257600080fd5b820160a08185031215610dc657600080fd5b60005b8381101561108f578181015183820152602001611077565b50506000910152565b600081518084526110b0816020860160208601611074565b601f01601f19169290920160200192915050565b602081526000610dc66020830184611098565b6000602082840312156110e957600080fd5b81518015158114610dc657600080fd5b8082018082111561028757634e487b7160e01b600052601160045260246000fd5b6000604067ffffffffffffffff8516835260208181850152845160a08386015261114760e0860182611098565b905081860151603f19808784030160608801526111648383611098565b88860151888203830160808a01528051808352908601945060009350908501905b808410156111b757845180516001600160a01b0316835286015186830152938501936001939093019290860190611185565b5060608901516001600160a01b031660a08901526080890151888203830160c08a015295506111e68187611098565b9a9950505050505050505050565b60006020828403121561120657600080fd5b5051919050565b6000808335601e1984360301811261122457600080fd5b83018035915067ffffffffffffffff82111561123f57600080fd5b60200191503681900382131561125457600080fd5b9250929050565b60006020828403121561126d57600080fd5b8135610dc681610f8b565b60006020828403121561128a57600080fd5b813567ffffffffffffffff81168114610dc657600080fd5b600181811c908216806112b657607f821691505b6020821081036112d657634e487b7160e01b600052602260045260246000fd5b50919050565b604081528260408201528284606083013760006060848301015260006060601f19601f8601168301019050826020830152949350505050565b60008251611327818460208701611074565b919091019291505056fea2646970667358221220f7da7e1787e83ba1445420567cd834d76a3950249d65e83c335290d4970ddbaa64736f6c63430008130033",
    "linkReferences": {}
  },
  "methodIdentifiers": {
    "BASE_GAS_LIMIT()": "81fbadad",
    "CCIP_ROUTER()": "fe5f42ca",
    "CROSS_CHAIN_CONTROLLER()": "c4956366",
    "LINK_TOKEN()": "eedac3a6",
    "adapterName()": "ba286578",
    "ccipReceive((bytes32,uint64,bytes,bytes,(address,uint256)[]))": "85572ffb",
    "forwardMessage(address,uint256,uint256,bytes)": "36da7a06",
    "getTrustedRemoteByChainId(uint256)": "b86a6161",
    "infraToNativeChainId(uint256)": "d6887581",
    "nativeToInfraChainId(uint256)": "1e02e77c",
    "setupPayments()": "52d1043d",
    "supportsInterface(bytes4)": "01ffc9a7"
  },
  "id": 24
}