{
  "abi": [
    {
      "type": "constructor",
      "inputs": [
        {
          "name": "crossChainController",
          "type": "address",
          "internalType": "address"
        },
        {
          "name": "ethereumGovernanceExecutor",
          "type": "address",
          "internalType": "address"
        },
        {
          "name": "ethereumGovernanceChainId",
          "type": "uint256",
          "internalType": "uint256"
        },
        {
          "name": "delay",
          "type": "uint256",
          "internalType": "uint256"
        },
        {
          "name": "gracePeriod",
          "type": "uint256",
          "internalType": "uint256"
        },
        {
          "name": "minimumDelay",
          "type": "uint256",
          "internalType": "uint256"
        },
        {
          "name": "maximumDelay",
          "type": "uint256",
          "internalType": "uint256"
        },
        {
          "name": "guardian",
          "type": "address",
          "internalType": "address"
        }
      ],
      "stateMutability": "nonpayable"
    },
    {
      "type": "function",
      "name": "cancel",
      "inputs": [
        {
          "name": "actionsSetId",
          "type": "uint256",
          "internalType": "uint256"
        }
      ],
      "outputs": [],
      "stateMutability": "nonpayable"
    },
    {
      "type": "function",
      "name": "execute",
      "inputs": [
        {
          "name": "actionsSetId",
          "type": "uint256",
          "internalType": "uint256"
        }
      ],
      "outputs": [],
      "stateMutability": "payable"
    },
    {
      "type": "function",
      "name": "executeDelegateCall",
      "inputs": [
        {
          "name": "target",
          "type": "address",
          "internalType": "address"
        },
        {
          "name": "data",
          "type": "bytes",
          "internalType": "bytes"
        }
      ],
      "outputs": [
        {
          "name": "",
          "type": "bool",
          "internalType": "bool"
        },
        {
          "name": "",
          "type": "bytes",
          "internalType": "bytes"
        }
      ],
      "stateMutability": "payable"
    },
    {
      "type": "function",
      "name": "getActionsSetById",
      "inputs": [
        {
          "name": "actionsSetId",
          "type": "uint256",
          "internalType": "uint256"
        }
      ],
      "outputs": [
        {
          "name": "",
          "type": "tuple",
          "internalType": "struct IExecutorBase.ActionsSet",
          "components": [
            {
              "name": "targets",
              "type": "address[]",
              "internalType": "address[]"
            },
            {
              "name": "values",
              "type": "uint256[]",
              "internalType": "uint256[]"
            },
            {
              "name": "signatures",
              "type": "string[]",
              "internalType": "string[]"
            },
            {
              "name": "calldatas",
              "type": "bytes[]",
              "internalType": "bytes[]"
            },
            {
              "name": "withDelegatecalls",
              "type": "bool[]",
              "internalType": "bool[]"
            },
            {
              "name": "executionTime",
              "type": "uint256",
              "internalType": "uint256"
            },
            {
              "name": "executed",
              "type": "bool",
              "internalType": "bool"
            },
            {
              "name": "canceled",
              "type": "bool",
              "internalType": "bool"
            }
          ]
        }
      ],
      "stateMutability": "view"
    },
    {
      "type": "function",
      "name": "getActionsSetCount",
      "inputs": [],
      "outputs": [
        {
          "name": "",
          "type": "uint256",
          "internalType": "uint256"
        }
      ],
      "stateMutability": "view"
    },
    {
      "type": "function",
      "name": "getCrossChainController",
      "inputs": [],
      "outputs": [
        {
          "name": "",
          "type": "address",
          "internalType": "address"
        }
      ],
      "stateMutability": "view"
    },
    {
      "type": "function",
      "name": "getCurrentState",
      "inputs": [
        {
          "name": "actionsSetId",
          "type": "uint256",
          "internalType": "uint256"
        }
      ],
      "outputs": [
        {
          "name": "",
          "type": "uint8",
          "internalType": "enum IExecutorBase.ActionsSetState"
        }
      ],
      "stateMutability": "view"
    },
    {
      "type": "function",
      "name": "getDelay",
      "inputs": [],
      "outputs": [
        {
          "name": "",
          "type": "uint256",
          "internalType": "uint256"
        }
      ],
      "stateMutability": "view"
    },
    {
      "type": "function",
      "name": "getEthereumGovernanceChainId",
      "inputs": [],
      "outputs": [
        {
          "name": "",
          "type": "uint256",
          "internalType": "uint256"
        }
      ],
      "stateMutability": "view"
    },
    {
      "type": "function",
      "name": "getEthereumGovernanceExecutor",
      "inputs": [],
      "outputs": [
        {
          "name": "",
          "type": "address",
          "internalType": "address"
        }
      ],
      "stateMutability": "view"
    },
    {
      "type": "function",
      "name": "getGracePeriod",
      "inputs": [],
      "outputs": [
        {
          "name": "",
          "type": "uint256",
          "internalType": "uint256"
        }
      ],
      "stateMutability": "view"
    },
    {
      "type": "function",
      "name": "getGuardian",
      "inputs": [],
      "outputs": [
        {
          "name": "",
          "type": "address",
          "internalType": "address"
        }
      ],
      "stateMutability": "view"
    },
    {
      "type": "function",
      "name": "getMaximumDelay",
      "inputs": [],
      "outputs": [
        {
          "name": "",
          "type": "uint256",
          "internalType": "uint256"
        }
      ],
      "stateMutability": "view"
    },
    {
      "type": "function",
      "name": "getMinimumDelay",
      "inputs": [],
      "outputs": [
        {
          "name": "",
          "type": "uint256",
          "internalType": "uint256"
        }
      ],
      "stateMutability": "view"
    },
    {
      "type": "function",
      "name": "isActionQueued",
      "inputs": [
        {
          "name": "actionHash",
          "type": "bytes32",
          "internalType": "bytes32"
        }
      ],
      "outputs": [
        {
          "name": "",
          "type": "bool",
          "internalType": "bool"
        }
      ],
      "stateMutability": "view"
    },
    {
      "type": "function",
      "name": "receiveCrossChainMessage",
      "inputs": [
        {
          "name": "originSender",
          "type": "address",
          "internalType": "address"
        },
        {
          "name": "originChainId",
          "type": "uint256",
          "internalType": "uint256"
        },
        {
          "name": "message",
          "type": "bytes",
          "internalType": "bytes"
        }
      ],
      "outputs": [],
      "stateMutability": "nonpayable"
    },
    {
      "type": "function",
      "name": "receiveFunds",
      "inputs": [],
      "outputs": [],
      "stateMutability": "payable"
    },
    {
      "type": "function",
      "name": "updateDelay",
      "inputs": [
        {
          "name": "delay",
          "type": "uint256",
          "internalType": "uint256"
        }
      ],
      "outputs": [],
      "stateMutability": "nonpayable"
    },
    {
      "type": "function",
      "name": "updateGracePeriod",
      "inputs": [
        {
          "name": "gracePeriod",
          "type": "uint256",
          "internalType": "uint256"
        }
      ],
      "outputs": [],
      "stateMutability": "nonpayable"
    },
    {
      "type": "function",
      "name": "updateGuardian",
      "inputs": [
        {
          "name": "guardian",
          "type": "address",
          "internalType": "address"
        }
      ],
      "outputs": [],
      "stateMutability": "nonpayable"
    },
    {
      "type": "function",
      "name": "updateMaximumDelay",
      "inputs": [
        {
          "name": "maximumDelay",
          "type": "uint256",
          "internalType": "uint256"
        }
      ],
      "outputs": [],
      "stateMutability": "nonpayable"
    },
    {
      "type": "function",
      "name": "updateMinimumDelay",
      "inputs": [
        {
          "name": "minimumDelay",
          "type": "uint256",
          "internalType": "uint256"
        }
      ],
      "outputs": [],
      "stateMutability": "nonpayable"
    },
    {
      "type": "event",
      "name": "ActionsSetCanceled",
      "inputs": [
        {
          "name": "id",
          "type": "uint256",
          "indexed": true,
          "internalType": "uint256"
        }
      ],
      "anonymous": false
    },
    {
      "type": "event",
      "name": "ActionsSetExecuted",
      "inputs": [
        {
          "name": "id",
          "type": "uint256",
          "indexed": true,
          "internalType": "uint256"
        },
        {
          "name": "initiatorExecution",
          "type": "address",
          "indexed": true,
          "internalType": "address"
        },
        {
          "name": "returnedData",
          "type": "bytes[]",
          "indexed": false,
          "internalType": "bytes[]"
        }
      ],
      "anonymous": false
    },
    {
      "type": "event",
      "name": "ActionsSetQueued",
      "inputs": [
        {
          "name": "id",
          "type": "uint256",
          "indexed": true,
          "internalType": "uint256"
        },
        {
          "name": "targets",
          "type": "address[]",
          "indexed": false,
          "internalType": "address[]"
        },
        {
          "name": "values",
          "type": "uint256[]",
          "indexed": false,
          "internalType": "uint256[]"
        },
        {
          "name": "signatures",
          "type": "string[]",
          "indexed": false,
          "internalType": "string[]"
        },
        {
          "name": "calldatas",
          "type": "bytes[]",
          "indexed": false,
          "internalType": "bytes[]"
        },
        {
          "name": "withDelegatecalls",
          "type": "bool[]",
          "indexed": false,
          "internalType": "bool[]"
        },
        {
          "name": "executionTime",
          "type": "uint256",
          "indexed": false,
          "internalType": "uint256"
        }
      ],
      "anonymous": false
    },
    {
      "type": "event",
      "name": "DelayUpdate",
      "inputs": [
        {
          "name": "oldDelay",
          "type": "uint256",
          "indexed": false,
          "internalType": "uint256"
        },
        {
          "name": "newDelay",
          "type": "uint256",
          "indexed": false,
          "internalType": "uint256"
        }
      ],
      "anonymous": false
    },
    {
      "type": "event",
      "name": "GracePeriodUpdate",
      "inputs": [
        {
          "name": "oldGracePeriod",
          "type": "uint256",
          "indexed": false,
          "internalType": "uint256"
        },
        {
          "name": "newGracePeriod",
          "type": "uint256",
          "indexed": false,
          "internalType": "uint256"
        }
      ],
      "anonymous": false
    },
    {
      "type": "event",
      "name": "GuardianUpdate",
      "inputs": [
        {
          "name": "oldGuardian",
          "type": "address",
          "indexed": false,
          "internalType": "address"
        },
        {
          "name": "newGuardian",
          "type": "address",
          "indexed": false,
          "internalType": "address"
        }
      ],
      "anonymous": false
    },
    {
      "type": "event",
      "name": "MaximumDelayUpdate",
      "inputs": [
        {
          "name": "oldMaximumDelay",
          "type": "uint256",
          "indexed": false,
          "internalType": "uint256"
        },
        {
          "name": "newMaximumDelay",
          "type": "uint256",
          "indexed": false,
          "internalType": "uint256"
        }
      ],
      "anonymous": false
    },
    {
      "type": "event",
      "name": "MessageReceived",
      "inputs": [
        {
          "name": "originSender",
          "type": "address",
          "indexed": true,
          "internalType": "address"
        },
        {
          "name": "originChainId",
          "type": "uint256",
          "indexed": true,
          "internalType": "uint256"
        },
        {
          "name": "message",
          "type": "bytes",
          "indexed": false,
          "internalType": "bytes"
        }
      ],
      "anonymous": false
    },
    {
      "type": "event",
      "name": "MinimumDelayUpdate",
      "inputs": [
        {
          "name": "oldMinimumDelay",
          "type": "uint256",
          "indexed": false,
          "internalType": "uint256"
        },
        {
          "name": "newMinimumDelay",
          "type": "uint256",
          "indexed": false,
          "internalType": "uint256"
        }
      ],
      "anonymous": false
    },
    {
      "type": "error",
      "name": "DelayLongerThanMax",
      "inputs": []
    },
    {
      "type": "error",
      "name": "DelayShorterThanMin",
      "inputs": []
    },
    {
      "type": "error",
      "name": "DuplicateAction",
      "inputs": []
    },
    {
      "type": "error",
      "name": "EmptyTargets",
      "inputs": []
    },
    {
      "type": "error",
      "name": "FailedActionExecution",
      "inputs": []
    },
    {
      "type": "error",
      "name": "GracePeriodTooShort",
      "inputs": []
    },
    {
      "type": "error",
      "name": "InconsistentParamsLength",
      "inputs": []
    },
    {
      "type": "error",
      "name": "InsufficientBalance",
      "inputs": []
    },
    {
      "type": "error",
      "name": "InvalidActionsSetId",
      "inputs": []
    },
    {
      "type": "error",
      "name": "InvalidCaller",
      "inputs": []
    },
    {
      "type": "error",
      "name": "InvalidCrossChainController",
      "inputs": []
    },
    {
      "type": "error",
      "name": "InvalidEthereumGovernanceChainId",
      "inputs": []
    },
    {
      "type": "error",
      "name": "InvalidEthereumGovernanceExecutor",
      "inputs": []
    },
    {
      "type": "error",
      "name": "InvalidInitParams",
      "inputs": []
    },
    {
      "type": "error",
      "name": "InvalidSenderAddress",
      "inputs": []
    },
    {
      "type": "error",
      "name": "InvalidSenderChainId",
      "inputs": []
    },
    {
      "type": "error",
      "name": "MaximumDelayTooShort",
      "inputs": []
    },
    {
      "type": "error",
      "name": "MinimumDelayTooLong",
      "inputs": []
    },
    {
      "type": "error",
      "name": "NotGuardian",
      "inputs": []
    },
    {
      "type": "error",
      "name": "OnlyCallableByThis",
      "inputs": []
    },
    {
      "type": "error",
      "name": "OnlyQueuedActions",
      "inputs": []
    },
    {
      "type": "error",
      "name": "TimelockNotFinished",
      "inputs": []
    }
  ],
  "bytecode": {
    "object": "0x60e06040523480156200001157600080fd5b5060405162002936380380620029368339810160408190526200003491620002da565b84848484846102588410806200004a5750818310155b806200005557508285105b806200006057508185115b156200007f57604051630a5addd160e21b815260040160405180910390fd5b6200008a8562000150565b620000958462000191565b620000a083620001d2565b620000ab8262000213565b620000b68162000254565b5050506001600160a01b038a169150620000e590505760405163a3a71ab960e01b815260040160405180910390fd5b6001600160a01b0387166200010d576040516355382e6b60e11b815260040160405180910390fd5b856000036200012f57604051635045c3c760e11b815260040160405180910390fd5b5050506001600160a01b039485166080525050911660a05260c05262000355565b60005460408051918252602082018390527f43de56b886294fc29767e51a88b5c67fd24aefebc5ddf813b1d9b91b1df38444910160405180910390a1600055565b60015460408051918252602082018390527f9953f3a71052edcd4ae7a0f97302839d1dda32ab93c1039207c91c866b094f72910160405180910390a1600155565b60025460408051918252602082018390527fc534cdcbe9b52100810d787afd57e4174322776fcb58872ea706f23e9319fa8d910160405180910390a1600255565b60035460408051918252602082018390527faf46013422363beb5e6f00ab923cffe3574670494c864de2828b9d7c201fdde5910160405180910390a1600355565b600454604080516001600160a01b03928316815291831660208301527f85bd8788d3c4a160f0f6254229589f137d5633a870dcb46f99ffe07b4da1894b910160405180910390a1600480546001600160a01b0319166001600160a01b0392909216919091179055565b80516001600160a01b0381168114620002d557600080fd5b919050565b600080600080600080600080610100898b031215620002f857600080fd5b6200030389620002bd565b97506200031360208a01620002bd565b965060408901519550606089015194506080890151935060a0890151925060c089015191506200034660e08a01620002bd565b90509295985092959890939650565b60805160a05160c05161259c6200039a60003960008181610282015261052201526000818161037601526104d00152600081816101ce0152610490015261259c6000f3fe6080604052600436106101345760003560e01c8063a75b87d2116100ab578063cebc9a821161006f578063cebc9a821461039a578063d89aac39146103af578063dbd18388146103c4578063e471b026146103d9578063fc525395146103f9578063fe0d94c11461041957600080fd5b8063a75b87d2146102bb578063b1fc8796146102d9578063b3c82e9214610319578063b68df16d14610346578063c3a768861461036757600080fd5b80634b7f2e2b116100fd5780634b7f2e2b146101bf5780635748c130146102065780635ab98d5a1461023357806364d62353146102535780636d0aedb4146102735780638533f337146102a657600080fd5b80625c33e11461013957806303c276211461013b578063083a73a21461015f57806315034cba1461017f57806340e58ee51461019f575b600080fd5b005b34801561014757600080fd5b506002545b6040519081526020015b60405180910390f35b34801561016b57600080fd5b5061013961017a366004611a12565b61042c565b34801561018b57600080fd5b5061013961019a366004611aaf565b610485565b3480156101ab57600080fd5b506101396101ba366004611a12565b6105b0565b3480156101cb57600080fd5b507f00000000000000000000000000000000000000000000000000000000000000005b6040516001600160a01b039091168152602001610156565b34801561021257600080fd5b50610226610221366004611a12565b61085b565b6040516101569190611b61565b34801561023f57600080fd5b5061013961024e366004611a12565b6108f1565b34801561025f57600080fd5b5061013961026e366004611a12565b61093d565b34801561027f57600080fd5b507f000000000000000000000000000000000000000000000000000000000000000061014c565b3480156102b257600080fd5b5060055461014c565b3480156102c757600080fd5b506004546001600160a01b03166101ee565b3480156102e557600080fd5b506103096102f4366004611a12565b60009081526007602052604090205460ff1690565b6040519015158152602001610156565b34801561032557600080fd5b50610339610334366004611a12565b61096f565b6040516101569190611cd1565b610359610354366004611d9d565b610ce2565b604051610156929190611e22565b34801561037357600080fd5b507f00000000000000000000000000000000000000000000000000000000000000006101ee565b3480156103a657600080fd5b5060005461014c565b3480156103bb57600080fd5b5060035461014c565b3480156103d057600080fd5b5060015461014c565b3480156103e557600080fd5b506101396103f4366004611a12565b610d73565b34801561040557600080fd5b50610139610414366004611e45565b610dbe565b610139610427366004611a12565b610de7565b33301461044c57604051631dbf5f2360e01b815260040160405180910390fd5b600254811161046e5760405163cb2f2b2360e01b815260040160405180910390fd5b6104778161110f565b610482600054611150565b50565b336001600160a01b037f000000000000000000000000000000000000000000000000000000000000000016146104ce576040516348f5c3ed60e01b815260040160405180910390fd5b7f00000000000000000000000000000000000000000000000000000000000000006001600160a01b0316836001600160a01b03161461052057604051630658a73f60e01b815260040160405180910390fd5b7f00000000000000000000000000000000000000000000000000000000000000008214610560576040516366d8c02360e01b815260040160405180910390fd5b81836001600160a01b03167f98bbde530ec85b002f6fb0864beccaaf3ac3d2a4ac35cb3b03cf7c61ee415e338360405161059a9190611e69565b60405180910390a36105ab81611196565b505050565b6004546001600160a01b031633146105db576040516377b6878160e11b815260040160405180910390fd5b60006105e68261085b565b60038111156105f7576105f7611b4b565b146106155760405163050ac78b60e11b815260040160405180910390fd5b60008181526006602081905260408220908101805461ff001916610100179055805490915b8181101561082a5761082283600001828154811061065a5761065a611e7c565b6000918252602090912001546001850180546001600160a01b03909216918490811061068857610688611e7c565b90600052602060002001548560020184815481106106a8576106a8611e7c565b9060005260206000200180546106bd90611e92565b80601f01602080910402602001604051908101604052809291908181526020018280546106e990611e92565b80156107365780601f1061070b57610100808354040283529160200191610736565b820191906000526020600020905b81548152906001019060200180831161071957829003601f168201915b505050505086600301858154811061075057610750611e7c565b90600052602060002001805461076590611e92565b80601f016020809104026020016040519081016040528092919081815260200182805461079190611e92565b80156107de5780601f106107b3576101008083540402835291602001916107de565b820191906000526020600020905b8154815290600101906020018083116107c157829003601f168201915b505050505087600501548860040187815481106107fd576107fd611e7c565b90600052602060002090602091828204019190069054906101000a900460ff166111d3565b60010161063a565b5060405183907f0743c673685efcbf3db8591d9e1d98336bc844fe4f4599e6f7efb6d71c02563490600090a2505050565b6000816005541161087f5760405163e5bc0e7b60e01b815260040160405180910390fd5b600082815260066020819052604090912090810154610100900460ff16156108aa5750600292915050565b600681015460ff16156108c05750600192915050565b60015481600501546108d29190611ec6565b4211156108e25750600392915050565b50600092915050565b50919050565b33301461091157604051631dbf5f2360e01b815260040160405180910390fd5b610258811015610934576040516301f6f9e560e71b815260040160405180910390fd5b61048281611225565b33301461095d57604051631dbf5f2360e01b815260040160405180910390fd5b61096681611150565b61048281611266565b6109bb6040518061010001604052806060815260200160608152602001606081526020016060815260200160608152602001600081526020016000151581526020016000151581525090565b600082815260066020908152604091829020825181546101209381028201840190945261010081018481529093919284928491840182828015610a2757602002820191906000526020600020905b81546001600160a01b03168152600190910190602001808311610a09575b5050505050815260200160018201805480602002602001604051908101604052809291908181526020018280548015610a7f57602002820191906000526020600020905b815481526020019060010190808311610a6b575b5050505050815260200160028201805480602002602001604051908101604052809291908181526020016000905b82821015610b59578382906000526020600020018054610acc90611e92565b80601f0160208091040260200160405190810160405280929190818152602001828054610af890611e92565b8015610b455780601f10610b1a57610100808354040283529160200191610b45565b820191906000526020600020905b815481529060010190602001808311610b2857829003601f168201915b505050505081526020019060010190610aad565b50505050815260200160038201805480602002602001604051908101604052809291908181526020016000905b82821015610c32578382906000526020600020018054610ba590611e92565b80601f0160208091040260200160405190810160405280929190818152602001828054610bd190611e92565b8015610c1e5780601f10610bf357610100808354040283529160200191610c1e565b820191906000526020600020905b815481529060010190602001808311610c0157829003601f168201915b505050505081526020019060010190610b86565b50505050815260200160048201805480602002602001604051908101604052809291908181526020018280548015610ca957602002820191906000526020600020906000905b825461010083900a900460ff161515815260206001928301818104948501949093039092029101808411610c785790505b50505091835250506005820154602082015260069091015460ff8082161515604084015261010090910416151560609091015292915050565b60006060333014610d0657604051631dbf5f2360e01b815260040160405180910390fd5b60006060866001600160a01b03168686604051610d24929190611ee7565b600060405180830381855af49150503d8060008114610d5f576040519150601f19603f3d011682016040523d82523d6000602084013e610d64565b606091505b50909890975095505050505050565b333014610d9357604051631dbf5f2360e01b815260040160405180910390fd5b6003548110610db5576040516301b1029b60e61b815260040160405180910390fd5b610477816112a7565b333014610dde57604051631dbf5f2360e01b815260040160405180910390fd5b610482816112e8565b6000610df28261085b565b6003811115610e0357610e03611b4b565b14610e215760405163050ac78b60e11b815260040160405180910390fd5b60008181526006602052604090206005810154421015610e5457604051635192dd5560e01b815260040160405180910390fd5b60068101805460ff19166001179055805460008167ffffffffffffffff811115610e8057610e80611a40565b604051908082528060200260200182016040528015610eb357816020015b6060815260200190600190039081610e9e5790505b50905060005b828110156110c6576110a1846000018281548110610ed957610ed9611e7c565b6000918252602090912001546001860180546001600160a01b039092169184908110610f0757610f07611e7c565b9060005260206000200154866002018481548110610f2757610f27611e7c565b906000526020600020018054610f3c90611e92565b80601f0160208091040260200160405190810160405280929190818152602001828054610f6890611e92565b8015610fb55780601f10610f8a57610100808354040283529160200191610fb5565b820191906000526020600020905b815481529060010190602001808311610f9857829003601f168201915b5050505050876003018581548110610fcf57610fcf611e7c565b906000526020600020018054610fe490611e92565b80601f016020809104026020016040519081016040528092919081815260200182805461101090611e92565b801561105d5780601f106110325761010080835404028352916020019161105d565b820191906000526020600020905b81548152906001019060200180831161104057829003601f168201915b5050505050886005015489600401878154811061107c5761107c611e7c565b90600052602060002090602091828204019190069054906101000a900460ff16611351565b8282815181106110b3576110b3611e7c565b6020908102919091010152600101610eb9565b50336001600160a01b0316847ff5efc4bb09a12b6c9561a7e7ab02938a72a4351316b473d574fdaaa89c43eb9a836040516111019190611ef7565b60405180910390a350505050565b60035460408051918252602082018390527faf46013422363beb5e6f00ab923cffe3574670494c864de2828b9d7c201fdde5910160405180910390a1600355565b600254811015611173576040516361759e6560e01b815260040160405180910390fd5b600354811115610482576040516386dac63560e01b815260040160405180910390fd5b6060806060806060858060200190518101906111b291906121d4565b9398509196509450925090506111cb85858585856114fb565b505050505050565b60008686868686866040516020016111f0969594939291906122a6565b60408051601f198184030181529181528151602092830120600090815260079092529020805460ff1916905550505050505050565b60015460408051918252602082018390527f9953f3a71052edcd4ae7a0f97302839d1dda32ab93c1039207c91c866b094f72910160405180910390a1600155565b60005460408051918252602082018390527f43de56b886294fc29767e51a88b5c67fd24aefebc5ddf813b1d9b91b1df38444910160405180910390a1600055565b60025460408051918252602082018390527fc534cdcbe9b52100810d787afd57e4174322776fcb58872ea706f23e9319fa8d910160405180910390a1600255565b600454604080516001600160a01b03928316815291831660208301527f85bd8788d3c4a160f0f6254229589f137d5633a870dcb46f99ffe07b4da1894b910160405180910390a1600480546001600160a01b0319166001600160a01b0392909216919091179055565b60608547101561137457604051631e9acf1760e31b815260040160405180910390fd5b6000878787878787604051602001611391969594939291906122a6565b60408051601f19818403018152918152815160209283012060008181526007909352908220805460ff191690558751909250606091036113d25750846113fe565b8680519060200120866040516020016113ec9291906122fa565b60405160208183030381529060405290505b6000606085156114805760405163b68df16d60e01b8152309063b68df16d908c9061142f908f90889060040161232b565b60006040518083038185885af115801561144d573d6000803e3d6000fd5b50505050506040513d6000823e601f3d908101601f19168201604052611476919081019061234f565b90925090506114e2565b8a6001600160a01b03168a84604051611499919061239d565b60006040518083038185875af1925050503d80600081146114d6576040519150601f19603f3d011682016040523d82523d6000602084013e6114db565b606091505b5090925090505b6114ec828261176b565b9b9a5050505050505050505050565b845160000361151d57604051636a8e3e9360e11b815260040160405180910390fd5b8451845181141580611530575083518114155b8061153c575082518114155b80611548575081518114155b1561156657604051630d10f63b60e01b815260040160405180910390fd5b600554600080546115779042611ec6565b600580546001019055905060005b838110156116985760008982815181106115a1576115a1611e7c565b60200260200101518983815181106115bb576115bb611e7c565b60200260200101518984815181106115d5576115d5611e7c565b60200260200101518985815181106115ef576115ef611e7c565b6020026020010151868a878151811061160a5761160a611e7c565b6020026020010151604051602001611627969594939291906122a6565b6040516020818303038152906040528051906020012090506116588160009081526007602052604090205460ff1690565b1561167657604051633b2f04e360e21b815260040160405180910390fd5b6000908152600760205260409020805460ff1916600190811790915501611585565b506000828152600660209081526040909120895190916116bc9183918c01906117a9565b5087516116d290600183019060208b019061180e565b5086516116e890600283019060208a0190611849565b5085516116fe906003830190602089019061189b565b50845161171490600483019060208801906118ed565b50818160050181905550827f0325966a4aa089b42f4766ec96f599405102bb309e065f24874aff59082dbc8b8a8a8a8a8a88604051611758969594939291906123b9565b60405180910390a2505050505050505050565b6060821561177a5750806117a3565b81511561178a5781518083602001fd5b6040516332f63ed360e21b815260040160405180910390fd5b92915050565b8280548282559060005260206000209081019282156117fe579160200282015b828111156117fe57825182546001600160a01b0319166001600160a01b039091161782556020909201916001909101906117c9565b5061180a929150611989565b5090565b8280548282559060005260206000209081019282156117fe579160200282015b828111156117fe57825182559160200191906001019061182e565b82805482825590600052602060002090810192821561188f579160200282015b8281111561188f578251829061187f90826124a6565b5091602001919060010190611869565b5061180a92915061199e565b8280548282559060005260206000209081019282156118e1579160200282015b828111156118e157825182906118d190826124a6565b50916020019190600101906118bb565b5061180a9291506119bb565b82805482825590600052602060002090601f016020900481019282156117fe5791602002820160005b8382111561195357835183826101000a81548160ff0219169083151502179055509260200192600101602081600001049283019260010302611916565b80156119805782816101000a81549060ff0219169055600101602081600001049283019260010302611953565b505061180a9291505b5b8082111561180a576000815560010161198a565b8082111561180a5760006119b282826119d8565b5060010161199e565b8082111561180a5760006119cf82826119d8565b506001016119bb565b5080546119e490611e92565b6000825580601f106119f4575050565b601f0160209004906000526020600020908101906104829190611989565b600060208284031215611a2457600080fd5b5035919050565b6001600160a01b038116811461048257600080fd5b634e487b7160e01b600052604160045260246000fd5b604051601f8201601f1916810167ffffffffffffffff81118282101715611a7f57611a7f611a40565b604052919050565b600067ffffffffffffffff821115611aa157611aa1611a40565b50601f01601f191660200190565b600080600060608486031215611ac457600080fd5b8335611acf81611a2b565b925060208401359150604084013567ffffffffffffffff811115611af257600080fd5b8401601f81018613611b0357600080fd5b8035611b16611b1182611a87565b611a56565b818152876020838501011115611b2b57600080fd5b816020840160208301376000602083830101528093505050509250925092565b634e487b7160e01b600052602160045260246000fd5b6020810160048310611b8357634e487b7160e01b600052602160045260246000fd5b91905290565b600081518084526020808501945080840160005b83811015611bc25781516001600160a01b031687529582019590820190600101611b9d565b509495945050505050565b600081518084526020808501945080840160005b83811015611bc257815187529582019590820190600101611be1565b60005b83811015611c18578181015183820152602001611c00565b50506000910152565b60008151808452611c39816020860160208601611bfd565b601f01601f19169290920160200192915050565b6000815180845260208085019450848260051b860182860160005b85811015611c92578383038952611c80838351611c21565b98850198925090840190600101611c68565b5090979650505050505050565b600081518084526020808501945080840160005b83811015611bc2578151151587529582019590820190600101611cb3565b6020815260008251610100806020850152611cf0610120850183611b89565b91506020850151601f1980868503016040870152611d0e8483611bcd565b93506040870151915080868503016060870152611d2b8483611c4d565b93506060870151915080868503016080870152611d488483611c4d565b935060808701519150808685030160a087015250611d668382611c9f565b92505060a085015160c085015260c0850151611d8660e086018215159052565b5060e0850151801515858301525090949350505050565b600080600060408486031215611db257600080fd5b8335611dbd81611a2b565b9250602084013567ffffffffffffffff80821115611dda57600080fd5b818601915086601f830112611dee57600080fd5b813581811115611dfd57600080fd5b876020828501011115611e0f57600080fd5b6020830194508093505050509250925092565b8215158152604060208201526000611e3d6040830184611c21565b949350505050565b600060208284031215611e5757600080fd5b8135611e6281611a2b565b9392505050565b602081526000611e626020830184611c21565b634e487b7160e01b600052603260045260246000fd5b600181811c90821680611ea657607f821691505b6020821081036108eb57634e487b7160e01b600052602260045260246000fd5b808201808211156117a357634e487b7160e01b600052601160045260246000fd5b8183823760009101908152919050565b602081526000611e626020830184611c4d565b600067ffffffffffffffff821115611f2457611f24611a40565b5060051b60200190565b600082601f830112611f3f57600080fd5b81516020611f4f611b1183611f0a565b82815260059290921b84018101918181019086841115611f6e57600080fd5b8286015b84811015611f92578051611f8581611a2b565b8352918301918301611f72565b509695505050505050565b600082601f830112611fae57600080fd5b81516020611fbe611b1183611f0a565b82815260059290921b84018101918181019086841115611fdd57600080fd5b8286015b84811015611f925780518352918301918301611fe1565b6000612006611b1184611a87565b905082815283838301111561201a57600080fd5b611e62836020830184611bfd565b600082601f83011261203957600080fd5b81516020612049611b1183611f0a565b82815260059290921b8401810191818101908684111561206857600080fd5b8286015b84811015611f9257805167ffffffffffffffff81111561208c5760008081fd5b8701603f8101891361209e5760008081fd5b6120af898683015160408401611ff8565b84525091830191830161206c565b600082601f8301126120ce57600080fd5b611e6283835160208501611ff8565b600082601f8301126120ee57600080fd5b815160206120fe611b1183611f0a565b82815260059290921b8401810191818101908684111561211d57600080fd5b8286015b84811015611f9257805167ffffffffffffffff8111156121415760008081fd5b61214f8986838b01016120bd565b845250918301918301612121565b8051801515811461216d57600080fd5b919050565b600082601f83011261218357600080fd5b81516020612193611b1183611f0a565b82815260059290921b840181019181810190868411156121b257600080fd5b8286015b84811015611f92576121c78161215d565b83529183019183016121b6565b600080600080600060a086880312156121ec57600080fd5b855167ffffffffffffffff8082111561220457600080fd5b61221089838a01611f2e565b9650602088015191508082111561222657600080fd5b61223289838a01611f9d565b9550604088015191508082111561224857600080fd5b61225489838a01612028565b9450606088015191508082111561226a57600080fd5b61227689838a016120dd565b9350608088015191508082111561228c57600080fd5b5061229988828901612172565b9150509295509295909350565b60018060a01b038716815285602082015260c0604082015260006122cd60c0830187611c21565b82810360608401526122df8187611c21565b6080840195909552505090151560a090910152949350505050565b6001600160e01b031983168152815160009061231d816004850160208701611bfd565b919091016004019392505050565b6001600160a01b0383168152604060208201819052600090611e3d90830184611c21565b6000806040838503121561236257600080fd5b61236b8361215d565b9150602083015167ffffffffffffffff81111561238757600080fd5b612393858286016120bd565b9150509250929050565b600082516123af818460208701611bfd565b9190910192915050565b60c0808252875190820181905260009060209060e0840190828b01845b828110156123fb5781516001600160a01b0316845292840192908401906001016123d6565b5050508381038285015261240f818a611bcd565b91505082810360408401526124248188611c4d565b905082810360608401526124388187611c4d565b9050828103608084015261244c8186611c9f565b9150508260a0830152979650505050505050565b601f8211156105ab57600081815260208120601f850160051c810160208610156124875750805b601f850160051c820191505b818110156111cb57828155600101612493565b815167ffffffffffffffff8111156124c0576124c0611a40565b6124d4816124ce8454611e92565b84612460565b602080601f83116001811461250957600084156124f15750858301515b600019600386901b1c1916600185901b1785556111cb565b600085815260208120601f198616915b8281101561253857888601518255948401946001909101908401612519565b50858210156125565787850151600019600388901b60f8161c191681555b5050505050600190811b0190555056fea2646970667358221220e151e3ef480b526ddc71d343071ff17e5964f5f36c47d272a124980b57be090564736f6c63430008130033",
    "linkReferences": {}
  },
  "methodIdentifiers": {
    "cancel(uint256)": "40e58ee5",
    "execute(uint256)": "fe0d94c1",
    "executeDelegateCall(address,bytes)": "b68df16d",
    "getActionsSetById(uint256)": "b3c82e92",
    "getActionsSetCount()": "8533f337",
    "getCrossChainController()": "4b7f2e2b",
    "getCurrentState(uint256)": "5748c130",
    "getDelay()": "cebc9a82",
    "getEthereumGovernanceChainId()": "6d0aedb4",
    "getEthereumGovernanceExecutor()": "c3a76886",
    "getGracePeriod()": "dbd18388",
    "getGuardian()": "a75b87d2",
    "getMaximumDelay()": "d89aac39",
    "getMinimumDelay()": "03c27621",
    "isActionQueued(bytes32)": "b1fc8796",
    "receiveCrossChainMessage(address,uint256,bytes)": "15034cba",
    "receiveFunds()": "005c33e1",
    "updateDelay(uint256)": "64d62353",
    "updateGracePeriod(uint256)": "5ab98d5a",
    "updateGuardian(address)": "fc525395",
    "updateMaximumDelay(uint256)": "083a73a2",
    "updateMinimumDelay(uint256)": "e471b026"
  },
  "id": 45
}