{
  "abi": [
    {
      "type": "constructor",
      "inputs": [
        {
          "name": "crossChainController",
          "type": "address",
          "internalType": "address"
        },
        {
          "name": "wormholeRelayer",
          "type": "address",
          "internalType": "address"
        },
        {
          "name": "refundAddress",
          "type": "address",
          "internalType": "address"
        },
        {
          "name": "providerGasLimit",
          "type": "uint256",
          "internalType": "uint256"
        },
        {
          "name": "trustedRemotes",
          "type": "tuple[]",
          "internalType": "struct IBaseAdapter.TrustedRemotesConfig[]",
          "components": [
            {
              "name": "originForwarder",
              "type": "address",
              "internalType": "address"
            },
            {
              "name": "originChainId",
              "type": "uint256",
              "internalType": "uint256"
            }
          ]
        }
      ],
      "stateMutability": "nonpayable"
    },
    {
      "type": "function",
      "name": "BASE_GAS_LIMIT",
      "inputs": [],
      "outputs": [
        {
          "name": "",
          "type": "uint256",
          "internalType": "uint256"
        }
      ],
      "stateMutability": "view"
    },
    {
      "type": "function",
      "name": "CROSS_CHAIN_CONTROLLER",
      "inputs": [],
      "outputs": [
        {
          "name": "",
          "type": "address",
          "internalType": "contract IBaseCrossChainController"
        }
      ],
      "stateMutability": "view"
    },
    {
      "type": "function",
      "name": "REFUND_ADDRESS",
      "inputs": [],
      "outputs": [
        {
          "name": "",
          "type": "address",
          "internalType": "address"
        }
      ],
      "stateMutability": "view"
    },
    {
      "type": "function",
      "name": "WORMHOLE_RELAYER",
      "inputs": [],
      "outputs": [
        {
          "name": "",
          "type": "address",
          "internalType": "address"
        }
      ],
      "stateMutability": "view"
    },
    {
      "type": "function",
      "name": "adapterName",
      "inputs": [],
      "outputs": [
        {
          "name": "",
          "type": "string",
          "internalType": "string"
        }
      ],
      "stateMutability": "view"
    },
    {
      "type": "function",
      "name": "forwardMessage",
      "inputs": [
        {
          "name": "receiver",
          "type": "address",
          "internalType": "address"
        },
        {
          "name": "executionGasLimit",
          "type": "uint256",
          "internalType": "uint256"
        },
        {
          "name": "destinationChainId",
          "type": "uint256",
          "internalType": "uint256"
        },
        {
          "name": "message",
          "type": "bytes",
          "internalType": "bytes"
        }
      ],
      "outputs": [
        {
          "name": "",
          "type": "address",
          "internalType": "address"
        },
        {
          "name": "",
          "type": "uint256",
          "internalType": "uint256"
        }
      ],
      "stateMutability": "nonpayable"
    },
    {
      "type": "function",
      "name": "getTrustedRemoteByChainId",
      "inputs": [
        {
          "name": "chainId",
          "type": "uint256",
          "internalType": "uint256"
        }
      ],
      "outputs": [
        {
          "name": "",
          "type": "address",
          "internalType": "address"
        }
      ],
      "stateMutability": "view"
    },
    {
      "type": "function",
      "name": "infraToNativeChainId",
      "inputs": [
        {
          "name": "infraChainId",
          "type": "uint256",
          "internalType": "uint256"
        }
      ],
      "outputs": [
        {
          "name": "",
          "type": "uint256",
          "internalType": "uint256"
        }
      ],
      "stateMutability": "pure"
    },
    {
      "type": "function",
      "name": "nativeToInfraChainId",
      "inputs": [
        {
          "name": "nativeChainId",
          "type": "uint256",
          "internalType": "uint256"
        }
      ],
      "outputs": [
        {
          "name": "",
          "type": "uint256",
          "internalType": "uint256"
        }
      ],
      "stateMutability": "pure"
    },
    {
      "type": "function",
      "name": "receiveWormholeMessages",
      "inputs": [
        {
          "name": "payload",
          "type": "bytes",
          "internalType": "bytes"
        },
        {
          "name": "",
          "type": "bytes[]",
          "internalType": "bytes[]"
        },
        {
          "name": "sourceAddress",
          "type": "bytes32",
          "internalType": "bytes32"
        },
        {
          "name": "sourceChain",
          "type": "uint16",
          "internalType": "uint16"
        },
        {
          "name": "",
          "type": "bytes32",
          "internalType": "bytes32"
        }
      ],
      "outputs": [],
      "stateMutability": "payable"
    },
    {
      "type": "function",
      "name": "setupPayments",
      "inputs": [],
      "outputs": [],
      "stateMutability": "nonpayable"
    },
    {
      "type": "event",
      "name": "SetTrustedRemote",
      "inputs": [
        {
          "name": "originChainId",
          "type": "uint256",
          "indexed": false,
          "internalType": "uint256"
        },
        {
          "name": "originForwarder",
          "type": "address",
          "indexed": false,
          "internalType": "address"
        }
      ],
      "anonymous": false
    }
  ],
  "bytecode": {
    "object": "0x6101206040523480156200001257600080fd5b5060405162001448380380620014488339810160408190526200003591620002e5565b84826040518060400160405280601081526020016f2bb7b936b437b6329030b230b83a32b960811b8152508360006001600160a01b0316846001600160a01b0316141560405180604001604052806002815260200161323360f01b81525090620000bd5760405162461bcd60e51b8152600401620000b491906200040c565b60405180910390fd5b506001600160a01b03841660805260a08390526001620000de8382620004eb565b503060c05260005b8151811015620001ee576000828281518110620001075762000107620005b7565b6020026020010151905060006001600160a01b031681600001516001600160a01b0316141560405180604001604052806002815260200161323760f01b81525090620001685760405162461bcd60e51b8152600401620000b491906200040c565b50805160208083018051600090815280835260409081902080546001600160a01b0319166001600160a01b03958616179055905184518251918252909316918301919091527fa214744f665691ef0eb9e4277cfa3c9198106c8925d6fa6880b6813f705c1aab910160405180910390a15080620001e581620005cd565b915050620000e6565b5050604080518082019091526002815261343160f01b6020820152925050506001600160a01b038516620002375760405162461bcd60e51b8152600401620000b491906200040c565b5050506001600160a01b0391821660e052166101005250620005f5565b80516001600160a01b03811681146200026c57600080fd5b919050565b634e487b7160e01b600052604160045260246000fd5b604080519081016001600160401b0381118282101715620002ac57620002ac62000271565b60405290565b604051601f8201601f191681016001600160401b0381118282101715620002dd57620002dd62000271565b604052919050565b600080600080600060a08688031215620002fe57600080fd5b620003098662000254565b945060206200031a81880162000254565b945060406200032b81890162000254565b606089015160808a015191965094506001600160401b03808211156200035057600080fd5b818a0191508a601f8301126200036557600080fd5b8151818111156200037a576200037a62000271565b6200038a858260051b01620002b2565b818152858101925060069190911b83018501908c821115620003ab57600080fd5b928501925b81841015620003f95784848e031215620003ca5760008081fd5b620003d462000287565b620003df8562000254565b8152848701518782015283529284019291850191620003b0565b8096505050505050509295509295909350565b600060208083528351808285015260005b818110156200043b578581018301518582016040015282016200041d565b506000604082860101526040601f19601f8301168501019250505092915050565b600181811c908216806200047157607f821691505b6020821081036200049257634e487b7160e01b600052602260045260246000fd5b50919050565b601f821115620004e657600081815260208120601f850160051c81016020861015620004c15750805b601f850160051c820191505b81811015620004e257828155600101620004cd565b5050505b505050565b81516001600160401b0381111562000507576200050762000271565b6200051f816200051884546200045c565b8462000498565b602080601f8311600181146200055757600084156200053e5750858301515b600019600386901b1c1916600185901b178555620004e2565b600085815260208120601f198616915b82811015620005885788860151825594840194600190910190840162000567565b5085821015620005a75787850151600019600388901b60f8161c191681555b5050505050600190811b01905550565b634e487b7160e01b600052603260045260246000fd5b600060018201620005ee57634e487b7160e01b600052601160045260246000fd5b5060010190565b60805160a05160c05160e05161010051610dde6200066a60003960008181610272015261048a01526000818160b301528181610452015281816105110152818161057001526108000152600061089901526000818161019201526103db01526000818161021e01526108ef0152610dde6000f3fe60806040526004361061009c5760003560e01c806381fbadad1161006457806381fbadad14610180578063b86a6161146101b4578063ba286578146101ea578063c49563661461020c578063d688758114610240578063f1ae0e9b1461026057600080fd5b80630f1f9cfc146100a15780631e02e77c146100f257806336da7a0614610120578063529dca321461015f57806352d1043d14610174575b600080fd5b3480156100ad57600080fd5b506100d57f000000000000000000000000000000000000000000000000000000000000000081565b6040516001600160a01b0390911681526020015b60405180910390f35b3480156100fe57600080fd5b5061011261010d36600461095f565b610294565b6040519081526020016100e9565b34801561012c57600080fd5b5061014061013b3660046109c1565b610336565b604080516001600160a01b0390931683526020830191909152016100e9565b61017261016d366004610a90565b61054c565b005b34801561017257600080fd5b34801561018c57600080fd5b506101127f000000000000000000000000000000000000000000000000000000000000000081565b3480156101c057600080fd5b506100d56101cf36600461095f565b6000908152602081905260409020546001600160a01b031690565b3480156101f657600080fd5b506101ff610642565b6040516100e99190610c02565b34801561021857600080fd5b506100d57f000000000000000000000000000000000000000000000000000000000000000081565b34801561024c57600080fd5b5061011261025b36600461095f565b6106d0565b34801561026c57600080fd5b506100d57f000000000000000000000000000000000000000000000000000000000000000081565b6000816002036102a657506001919050565b816006036102b7575061a86a919050565b816005036102c757506089919050565b816017036102d8575061a4b1919050565b816018036102e85750600a919050565b81600a036102f8575060fa919050565b8160040361030857506038919050565b8160190361031857506064919050565b81600e03610329575061a4ec919050565b506000919050565b919050565b600080600061034c610347876106d0565b610765565b604080518082019091526002815261031360f41b602082015290915061ffff82166103935760405162461bcd60e51b815260040161038a9190610c02565b60405180910390fd5b506040805180820190915260018152603960f81b60208201526001600160a01b0389166103d35760405162461bcd60e51b815260040161038a9190610c02565b5060006104007f000000000000000000000000000000000000000000000000000000000000000089610c50565b9050600061040e82846107cc565b90504781111560405180604001604052806002815260200161313160f01b8152509061044d5760405162461bcd60e51b815260040161038a9190610c02565b5060007f00000000000000000000000000000000000000000000000000000000000000006001600160a01b0316634b5ca6f483868e8c8c60008a8c7f00000000000000000000000000000000000000000000000000000000000000006040518a63ffffffff1660e01b81526004016104cc989796959493929190610c9a565b60206040518083038185885af11580156104ea573d6000803e3d6000fd5b50505050506040513d601f19601f8201168201806040525081019061050f9190610cf5565b7f0000000000000000000000000000000000000000000000000000000000000000965067ffffffffffffffff169450505050509550959350505050565b6040805180820190915260028152611a1960f11b6020820152336001600160a01b037f000000000000000000000000000000000000000000000000000000000000000016146105ae5760405162461bcd60e51b815260040161038a9190610c02565b508260006105bf61ffff8516610294565b6000818152602081905260409020549091506001600160a01b0383811691161480156105f357506001600160a01b03821615155b60405180604001604052806002815260200161189960f11b8152509061062c5760405162461bcd60e51b815260040161038a9190610c02565b50610638888883610875565b5050505050505050565b6001805461064f90610d26565b80601f016020809104026020016040519081016040528092919081815260200182805461067b90610d26565b80156106c85780601f1061069d576101008083540402835291602001916106c8565b820191906000526020600020905b8154815290600101906020018083116106ab57829003601f168201915b505050505081565b6000600182036106e257506002919050565b61a86a82036106f357506006919050565b6089820361070357506005919050565b61a4b1820361071457506017919050565b600a820361072457506018919050565b60fa82036107345750600a919050565b6038820361074457506004919050565b6064820361075457506019919050565b61a4ec82036103295750600e919050565b600061ffff8211156107c85760405162461bcd60e51b815260206004820152602660248201527f53616665436173743a2076616c756520646f65736e27742066697420696e203160448201526536206269747360d01b606482015260840161038a565b5090565b60405163c23ee3c360e01b815261ffff82166004820152600060248201819052604482018490529081906001600160a01b037f0000000000000000000000000000000000000000000000000000000000000000169063c23ee3c3906064016040805180830381865afa158015610846573d6000803e3d6000fd5b505050506040513d601f19601f8201168201806040525081019061086a9190610d60565b509150505b92915050565b6040805180820190915260028152610c8d60f21b6020820152306001600160a01b037f000000000000000000000000000000000000000000000000000000000000000016146108d75760405162461bcd60e51b815260040161038a9190610c02565b506040516376b42cad60e11b81526001600160a01b037f0000000000000000000000000000000000000000000000000000000000000000169063ed68595a9061092890869086908690600401610d84565b600060405180830381600087803b15801561094257600080fd5b505af1158015610956573d6000803e3d6000fd5b50505050505050565b60006020828403121561097157600080fd5b5035919050565b60008083601f84011261098a57600080fd5b50813567ffffffffffffffff8111156109a257600080fd5b6020830191508360208285010111156109ba57600080fd5b9250929050565b6000806000806000608086880312156109d957600080fd5b85356001600160a01b03811681146109f057600080fd5b94506020860135935060408601359250606086013567ffffffffffffffff811115610a1a57600080fd5b610a2688828901610978565b969995985093965092949392505050565b634e487b7160e01b600052604160045260246000fd5b604051601f8201601f1916810167ffffffffffffffff81118282101715610a7657610a76610a37565b604052919050565b803561ffff8116811461033157600080fd5b60008060008060008060a08789031215610aa957600080fd5b67ffffffffffffffff8088351115610ac057600080fd5b610acd8989358a01610978565b90975095506020880135811015610ae357600080fd5b6020880135880189601f820112610af957600080fd5b8181351115610b0a57610b0a610a37565b610b1a6020823560051b01610a4d565b81358082526020808301929160051b8401018c1015610b3857600080fd5b602083015b6020843560051b850101811015610bd6578481351115610b5c57600080fd5b803584018d603f820112610b6f57600080fd5b602081013586811115610b8457610b84610a37565b610b97601f8201601f1916602001610a4d565b8181528f6040838501011115610bac57600080fd5b81604084016020830137600060208383010152808652505050602083019250602081019050610b3d565b50965050505060408701359250610bef60608801610a7e565b9150608087013590509295509295509295565b600060208083528351808285015260005b81811015610c2f57858101830151858201604001528201610c13565b506000604082860101526040601f19601f8301168501019250505092915050565b8082018082111561086f57634e487b7160e01b600052601160045260246000fd5b81835281816020850137506000828201602090810191909152601f909101601f19169091010190565b600061ffff808b16835260018060a01b03808b16602085015260e06040850152610cc860e085018a8c610c71565b925087606085015286608085015281861660a085015280851660c085015250509998505050505050505050565b600060208284031215610d0757600080fd5b815167ffffffffffffffff81168114610d1f57600080fd5b9392505050565b600181811c90821680610d3a57607f821691505b602082108103610d5a57634e487b7160e01b600052602260045260246000fd5b50919050565b60008060408385031215610d7357600080fd5b505080516020909101519092909150565b604081526000610d98604083018587610c71565b905082602083015294935050505056fea26469706673582212201313cb53a3a59c9d9eb20f242cadaaa0fd5fded203b27c8caa6a7e6e7955653a64736f6c63430008130033",
    "linkReferences": {}
  },
  "methodIdentifiers": {
    "BASE_GAS_LIMIT()": "81fbadad",
    "CROSS_CHAIN_CONTROLLER()": "c4956366",
    "REFUND_ADDRESS()": "f1ae0e9b",
    "WORMHOLE_RELAYER()": "0f1f9cfc",
    "adapterName()": "ba286578",
    "forwardMessage(address,uint256,uint256,bytes)": "36da7a06",
    "getTrustedRemoteByChainId(uint256)": "b86a6161",
    "infraToNativeChainId(uint256)": "d6887581",
    "nativeToInfraChainId(uint256)": "1e02e77c",
    "receiveWormholeMessages(bytes,bytes[],bytes32,uint16,bytes32)": "529dca32",
    "setupPayments()": "52d1043d"
  },
  "id": 96
}