{
  "abi": [
    {
      "type": "constructor",
      "inputs": [
        {
          "name": "crossChainController",
          "type": "address",
          "internalType": "address"
        },
        {
          "name": "wormholeRelayer",
          "type": "address",
          "internalType": "address"
        },
        {
          "name": "refundAddress",
          "type": "address",
          "internalType": "address"
        },
        {
          "name": "providerGasLimit",
          "type": "uint256",
          "internalType": "uint256"
        },
        {
          "name": "trustedRemotes",
          "type": "tuple[]",
          "internalType": "struct IBaseAdapter.TrustedRemotesConfig[]",
          "components": [
            {
              "name": "originForwarder",
              "type": "address",
              "internalType": "address"
            },
            {
              "name": "originChainId",
              "type": "uint256",
              "internalType": "uint256"
            }
          ]
        }
      ],
      "stateMutability": "nonpayable"
    },
    {
      "type": "function",
      "name": "BASE_GAS_LIMIT",
      "inputs": [],
      "outputs": [
        {
          "name": "",
          "type": "uint256",
          "internalType": "uint256"
        }
      ],
      "stateMutability": "view"
    },
    {
      "type": "function",
      "name": "CROSS_CHAIN_CONTROLLER",
      "inputs": [],
      "outputs": [
        {
          "name": "",
          "type": "address",
          "internalType": "contract IBaseCrossChainController"
        }
      ],
      "stateMutability": "view"
    },
    {
      "type": "function",
      "name": "REFUND_ADDRESS",
      "inputs": [],
      "outputs": [
        {
          "name": "",
          "type": "address",
          "internalType": "address"
        }
      ],
      "stateMutability": "view"
    },
    {
      "type": "function",
      "name": "WORMHOLE_RELAYER",
      "inputs": [],
      "outputs": [
        {
          "name": "",
          "type": "address",
          "internalType": "address"
        }
      ],
      "stateMutability": "view"
    },
    {
      "type": "function",
      "name": "adapterName",
      "inputs": [],
      "outputs": [
        {
          "name": "",
          "type": "string",
          "internalType": "string"
        }
      ],
      "stateMutability": "view"
    },
    {
      "type": "function",
      "name": "forwardMessage",
      "inputs": [
        {
          "name": "receiver",
          "type": "address",
          "internalType": "address"
        },
        {
          "name": "executionGasLimit",
          "type": "uint256",
          "internalType": "uint256"
        },
        {
          "name": "destinationChainId",
          "type": "uint256",
          "internalType": "uint256"
        },
        {
          "name": "message",
          "type": "bytes",
          "internalType": "bytes"
        }
      ],
      "outputs": [
        {
          "name": "",
          "type": "address",
          "internalType": "address"
        },
        {
          "name": "",
          "type": "uint256",
          "internalType": "uint256"
        }
      ],
      "stateMutability": "nonpayable"
    },
    {
      "type": "function",
      "name": "getTrustedRemoteByChainId",
      "inputs": [
        {
          "name": "chainId",
          "type": "uint256",
          "internalType": "uint256"
        }
      ],
      "outputs": [
        {
          "name": "",
          "type": "address",
          "internalType": "address"
        }
      ],
      "stateMutability": "view"
    },
    {
      "type": "function",
      "name": "infraToNativeChainId",
      "inputs": [
        {
          "name": "infraChainId",
          "type": "uint256",
          "internalType": "uint256"
        }
      ],
      "outputs": [
        {
          "name": "",
          "type": "uint256",
          "internalType": "uint256"
        }
      ],
      "stateMutability": "pure"
    },
    {
      "type": "function",
      "name": "nativeToInfraChainId",
      "inputs": [
        {
          "name": "nativeChainId",
          "type": "uint256",
          "internalType": "uint256"
        }
      ],
      "outputs": [
        {
          "name": "",
          "type": "uint256",
          "internalType": "uint256"
        }
      ],
      "stateMutability": "pure"
    },
    {
      "type": "function",
      "name": "receiveWormholeMessages",
      "inputs": [
        {
          "name": "payload",
          "type": "bytes",
          "internalType": "bytes"
        },
        {
          "name": "",
          "type": "bytes[]",
          "internalType": "bytes[]"
        },
        {
          "name": "sourceAddress",
          "type": "bytes32",
          "internalType": "bytes32"
        },
        {
          "name": "sourceChain",
          "type": "uint16",
          "internalType": "uint16"
        },
        {
          "name": "",
          "type": "bytes32",
          "internalType": "bytes32"
        }
      ],
      "outputs": [],
      "stateMutability": "payable"
    },
    {
      "type": "function",
      "name": "setupPayments",
      "inputs": [],
      "outputs": [],
      "stateMutability": "nonpayable"
    },
    {
      "type": "event",
      "name": "SetTrustedRemote",
      "inputs": [
        {
          "name": "originChainId",
          "type": "uint256",
          "indexed": false,
          "internalType": "uint256"
        },
        {
          "name": "originForwarder",
          "type": "address",
          "indexed": false,
          "internalType": "address"
        }
      ],
      "anonymous": false
    }
  ],
  "bytecode": {
    "object": "0x6101206040523480156200001257600080fd5b5060405162001395380380620013958339810160408190526200003591620002f0565b848484848484826040518060400160405280601081526020016f2bb7b936b437b6329030b230b83a32b960811b8152508360006001600160a01b0316846001600160a01b0316141560405180604001604052806002815260200161323360f01b81525090620000c25760405162461bcd60e51b8152600401620000b9919062000417565b60405180910390fd5b506001600160a01b03841660805260a08390526001620000e38382620004f6565b503060c05260005b8151811015620001f35760008282815181106200010c576200010c620005c2565b6020026020010151905060006001600160a01b031681600001516001600160a01b0316141560405180604001604052806002815260200161323760f01b815250906200016d5760405162461bcd60e51b8152600401620000b9919062000417565b50805160208083018051600090815280835260409081902080546001600160a01b0319166001600160a01b03958616179055905184518251918252909316918301919091527fa214744f665691ef0eb9e4277cfa3c9198106c8925d6fa6880b6813f705c1aab910160405180910390a15080620001ea81620005d8565b915050620000eb565b5050604080518082019091526002815261343160f01b6020820152925050506001600160a01b0385166200023c5760405162461bcd60e51b8152600401620000b9919062000417565b5050506001600160a01b0391821660e05216610100525062000600945050505050565b80516001600160a01b03811681146200027757600080fd5b919050565b634e487b7160e01b600052604160045260246000fd5b604080519081016001600160401b0381118282101715620002b757620002b76200027c565b60405290565b604051601f8201601f191681016001600160401b0381118282101715620002e857620002e86200027c565b604052919050565b600080600080600060a086880312156200030957600080fd5b62000314866200025f565b94506020620003258188016200025f565b94506040620003368189016200025f565b606089015160808a015191965094506001600160401b03808211156200035b57600080fd5b818a0191508a601f8301126200037057600080fd5b8151818111156200038557620003856200027c565b62000395858260051b01620002bd565b818152858101925060069190911b83018501908c821115620003b657600080fd5b928501925b81841015620004045784848e031215620003d55760008081fd5b620003df62000292565b620003ea856200025f565b8152848701518782015283529284019291850191620003bb565b8096505050505050509295509295909350565b600060208083528351808285015260005b81811015620004465785810183015185820160400152820162000428565b506000604082860101526040601f19601f8301168501019250505092915050565b600181811c908216806200047c57607f821691505b6020821081036200049d57634e487b7160e01b600052602260045260246000fd5b50919050565b601f821115620004f157600081815260208120601f850160051c81016020861015620004cc5750805b601f850160051c820191505b81811015620004ed57828155600101620004d8565b5050505b505050565b81516001600160401b038111156200051257620005126200027c565b6200052a8162000523845462000467565b84620004a3565b602080601f831160018114620005625760008415620005495750858301515b600019600386901b1c1916600185901b178555620004ed565b600085815260208120601f198616915b82811015620005935788860151825594840194600190910190840162000572565b5085821015620005b25787850151600019600388901b60f8161c191681555b5050505050600190811b01905550565b634e487b7160e01b600052603260045260246000fd5b600060018201620005f957634e487b7160e01b600052601160045260246000fd5b5060010190565b60805160a05160c05160e05161010051610d206200067560003960008181610272015261042b01526000818160b3015281816103f3015281816104b2015281816105110152610742015260006107db015260008181610192015261037c01526000818161021e01526108310152610d206000f3fe60806040526004361061009c5760003560e01c806381fbadad1161006457806381fbadad14610180578063b86a6161146101b4578063ba286578146101ea578063c49563661461020c578063d688758114610240578063f1ae0e9b1461026057600080fd5b80630f1f9cfc146100a15780631e02e77c146100f257806336da7a0614610120578063529dca321461015f57806352d1043d14610174575b600080fd5b3480156100ad57600080fd5b506100d57f000000000000000000000000000000000000000000000000000000000000000081565b6040516001600160a01b0390911681526020015b60405180910390f35b3480156100fe57600080fd5b5061011261010d3660046108a1565b610294565b6040519081526020016100e9565b34801561012c57600080fd5b5061014061013b366004610903565b6102d7565b604080516001600160a01b0390931683526020830191909152016100e9565b61017261016d3660046109d2565b6104ed565b005b34801561017257600080fd5b34801561018c57600080fd5b506101127f000000000000000000000000000000000000000000000000000000000000000081565b3480156101c057600080fd5b506100d56101cf3660046108a1565b6000908152602081905260409020546001600160a01b031690565b3480156101f657600080fd5b506101ff6105e3565b6040516100e99190610b44565b34801561021857600080fd5b506100d57f000000000000000000000000000000000000000000000000000000000000000081565b34801561024c57600080fd5b5061011261025b3660046108a1565b610671565b34801561026c57600080fd5b506100d57f000000000000000000000000000000000000000000000000000000000000000081565b600081612712036102a9575062aa36a7919050565b81600e036102ba575061aef3919050565b816004036102ca57506061919050565b506000919050565b919050565b60008060006102ed6102e887610671565b6106a7565b604080518082019091526002815261031360f41b602082015290915061ffff82166103345760405162461bcd60e51b815260040161032b9190610b44565b60405180910390fd5b506040805180820190915260018152603960f81b60208201526001600160a01b0389166103745760405162461bcd60e51b815260040161032b9190610b44565b5060006103a17f000000000000000000000000000000000000000000000000000000000000000089610b92565b905060006103af828461070e565b90504781111560405180604001604052806002815260200161313160f01b815250906103ee5760405162461bcd60e51b815260040161032b9190610b44565b5060007f00000000000000000000000000000000000000000000000000000000000000006001600160a01b0316634b5ca6f483868e8c8c60008a8c7f00000000000000000000000000000000000000000000000000000000000000006040518a63ffffffff1660e01b815260040161046d989796959493929190610bdc565b60206040518083038185885af115801561048b573d6000803e3d6000fd5b50505050506040513d601f19601f820116820180604052508101906104b09190610c37565b7f0000000000000000000000000000000000000000000000000000000000000000965067ffffffffffffffff169450505050509550959350505050565b6040805180820190915260028152611a1960f11b6020820152336001600160a01b037f0000000000000000000000000000000000000000000000000000000000000000161461054f5760405162461bcd60e51b815260040161032b9190610b44565b5082600061056061ffff8516610294565b6000818152602081905260409020549091506001600160a01b03838116911614801561059457506001600160a01b03821615155b60405180604001604052806002815260200161189960f11b815250906105cd5760405162461bcd60e51b815260040161032b9190610b44565b506105d98888836107b7565b5050505050505050565b600180546105f090610c68565b80601f016020809104026020016040519081016040528092919081815260200182805461061c90610c68565b80156106695780601f1061063e57610100808354040283529160200191610669565b820191906000526020600020905b81548152906001019060200180831161064c57829003601f168201915b505050505081565b600062aa36a782036106865750612712919050565b61aef382036106975750600e919050565b606182036102ca57506004919050565b600061ffff82111561070a5760405162461bcd60e51b815260206004820152602660248201527f53616665436173743a2076616c756520646f65736e27742066697420696e203160448201526536206269747360d01b606482015260840161032b565b5090565b60405163c23ee3c360e01b815261ffff82166004820152600060248201819052604482018490529081906001600160a01b037f0000000000000000000000000000000000000000000000000000000000000000169063c23ee3c3906064016040805180830381865afa158015610788573d6000803e3d6000fd5b505050506040513d601f19601f820116820180604052508101906107ac9190610ca2565b509150505b92915050565b6040805180820190915260028152610c8d60f21b6020820152306001600160a01b037f000000000000000000000000000000000000000000000000000000000000000016146108195760405162461bcd60e51b815260040161032b9190610b44565b506040516376b42cad60e11b81526001600160a01b037f0000000000000000000000000000000000000000000000000000000000000000169063ed68595a9061086a90869086908690600401610cc6565b600060405180830381600087803b15801561088457600080fd5b505af1158015610898573d6000803e3d6000fd5b50505050505050565b6000602082840312156108b357600080fd5b5035919050565b60008083601f8401126108cc57600080fd5b50813567ffffffffffffffff8111156108e457600080fd5b6020830191508360208285010111156108fc57600080fd5b9250929050565b60008060008060006080868803121561091b57600080fd5b85356001600160a01b038116811461093257600080fd5b94506020860135935060408601359250606086013567ffffffffffffffff81111561095c57600080fd5b610968888289016108ba565b969995985093965092949392505050565b634e487b7160e01b600052604160045260246000fd5b604051601f8201601f1916810167ffffffffffffffff811182821017156109b8576109b8610979565b604052919050565b803561ffff811681146102d257600080fd5b60008060008060008060a087890312156109eb57600080fd5b67ffffffffffffffff8088351115610a0257600080fd5b610a0f8989358a016108ba565b90975095506020880135811015610a2557600080fd5b6020880135880189601f820112610a3b57600080fd5b8181351115610a4c57610a4c610979565b610a5c6020823560051b0161098f565b81358082526020808301929160051b8401018c1015610a7a57600080fd5b602083015b6020843560051b850101811015610b18578481351115610a9e57600080fd5b803584018d603f820112610ab157600080fd5b602081013586811115610ac657610ac6610979565b610ad9601f8201601f191660200161098f565b8181528f6040838501011115610aee57600080fd5b81604084016020830137600060208383010152808652505050602083019250602081019050610a7f565b50965050505060408701359250610b31606088016109c0565b9150608087013590509295509295509295565b600060208083528351808285015260005b81811015610b7157858101830151858201604001528201610b55565b506000604082860101526040601f19601f8301168501019250505092915050565b808201808211156107b157634e487b7160e01b600052601160045260246000fd5b81835281816020850137506000828201602090810191909152601f909101601f19169091010190565b600061ffff808b16835260018060a01b03808b16602085015260e06040850152610c0a60e085018a8c610bb3565b925087606085015286608085015281861660a085015280851660c085015250509998505050505050505050565b600060208284031215610c4957600080fd5b815167ffffffffffffffff81168114610c6157600080fd5b9392505050565b600181811c90821680610c7c57607f821691505b602082108103610c9c57634e487b7160e01b600052602260045260246000fd5b50919050565b60008060408385031215610cb557600080fd5b505080516020909101519092909150565b604081526000610cda604083018587610bb3565b905082602083015294935050505056fea2646970667358221220028ae88c26989d2b356c42abd0970b78a6883f634538d3924c654a5308c0691c64736f6c63430008130033",
    "linkReferences": {}
  },
  "methodIdentifiers": {
    "BASE_GAS_LIMIT()": "81fbadad",
    "CROSS_CHAIN_CONTROLLER()": "c4956366",
    "REFUND_ADDRESS()": "f1ae0e9b",
    "WORMHOLE_RELAYER()": "0f1f9cfc",
    "adapterName()": "ba286578",
    "forwardMessage(address,uint256,uint256,bytes)": "36da7a06",
    "getTrustedRemoteByChainId(uint256)": "b86a6161",
    "infraToNativeChainId(uint256)": "d6887581",
    "nativeToInfraChainId(uint256)": "1e02e77c",
    "receiveWormholeMessages(bytes,bytes[],bytes32,uint16,bytes32)": "529dca32",
    "setupPayments()": "52d1043d"
  },
  "id": 21
}