{
  "abi": [
    {
      "type": "constructor",
      "inputs": [
        {
          "name": "crossChainController",
          "type": "address",
          "internalType": "address"
        },
        {
          "name": "mailBox",
          "type": "address",
          "internalType": "address"
        },
        {
          "name": "providerGasLimit",
          "type": "uint256",
          "internalType": "uint256"
        },
        {
          "name": "trustedRemotes",
          "type": "tuple[]",
          "internalType": "struct IBaseAdapter.TrustedRemotesConfig[]",
          "components": [
            {
              "name": "originForwarder",
              "type": "address",
              "internalType": "address"
            },
            {
              "name": "originChainId",
              "type": "uint256",
              "internalType": "uint256"
            }
          ]
        }
      ],
      "stateMutability": "nonpayable"
    },
    {
      "type": "function",
      "name": "BASE_GAS_LIMIT",
      "inputs": [],
      "outputs": [
        {
          "name": "",
          "type": "uint256",
          "internalType": "uint256"
        }
      ],
      "stateMutability": "view"
    },
    {
      "type": "function",
      "name": "CROSS_CHAIN_CONTROLLER",
      "inputs": [],
      "outputs": [
        {
          "name": "",
          "type": "address",
          "internalType": "contract IBaseCrossChainController"
        }
      ],
      "stateMutability": "view"
    },
    {
      "type": "function",
      "name": "HL_MAIL_BOX",
      "inputs": [],
      "outputs": [
        {
          "name": "",
          "type": "address",
          "internalType": "contract IMailbox"
        }
      ],
      "stateMutability": "view"
    },
    {
      "type": "function",
      "name": "adapterName",
      "inputs": [],
      "outputs": [
        {
          "name": "",
          "type": "string",
          "internalType": "string"
        }
      ],
      "stateMutability": "view"
    },
    {
      "type": "function",
      "name": "forwardMessage",
      "inputs": [
        {
          "name": "receiver",
          "type": "address",
          "internalType": "address"
        },
        {
          "name": "executionGasLimit",
          "type": "uint256",
          "internalType": "uint256"
        },
        {
          "name": "destinationChainId",
          "type": "uint256",
          "internalType": "uint256"
        },
        {
          "name": "message",
          "type": "bytes",
          "internalType": "bytes"
        }
      ],
      "outputs": [
        {
          "name": "",
          "type": "address",
          "internalType": "address"
        },
        {
          "name": "",
          "type": "uint256",
          "internalType": "uint256"
        }
      ],
      "stateMutability": "nonpayable"
    },
    {
      "type": "function",
      "name": "getTrustedRemoteByChainId",
      "inputs": [
        {
          "name": "chainId",
          "type": "uint256",
          "internalType": "uint256"
        }
      ],
      "outputs": [
        {
          "name": "",
          "type": "address",
          "internalType": "address"
        }
      ],
      "stateMutability": "view"
    },
    {
      "type": "function",
      "name": "handle",
      "inputs": [
        {
          "name": "_origin",
          "type": "uint32",
          "internalType": "uint32"
        },
        {
          "name": "_sender",
          "type": "bytes32",
          "internalType": "bytes32"
        },
        {
          "name": "_messageBody",
          "type": "bytes",
          "internalType": "bytes"
        }
      ],
      "outputs": [],
      "stateMutability": "payable"
    },
    {
      "type": "function",
      "name": "infraToNativeChainId",
      "inputs": [
        {
          "name": "infraChainId",
          "type": "uint256",
          "internalType": "uint256"
        }
      ],
      "outputs": [
        {
          "name": "",
          "type": "uint256",
          "internalType": "uint256"
        }
      ],
      "stateMutability": "pure"
    },
    {
      "type": "function",
      "name": "nativeToInfraChainId",
      "inputs": [
        {
          "name": "nativeChainId",
          "type": "uint256",
          "internalType": "uint256"
        }
      ],
      "outputs": [
        {
          "name": "",
          "type": "uint256",
          "internalType": "uint256"
        }
      ],
      "stateMutability": "pure"
    },
    {
      "type": "function",
      "name": "setupPayments",
      "inputs": [],
      "outputs": [],
      "stateMutability": "nonpayable"
    },
    {
      "type": "event",
      "name": "SetTrustedRemote",
      "inputs": [
        {
          "name": "originChainId",
          "type": "uint256",
          "indexed": false,
          "internalType": "uint256"
        },
        {
          "name": "originForwarder",
          "type": "address",
          "indexed": false,
          "internalType": "address"
        }
      ],
      "anonymous": false
    }
  ],
  "bytecode": {
    "object": "0x6101006040523480156200001257600080fd5b5060405162001160380380620011608339810160408190526200003591620002df565b838260405180604001604052806011815260200170243cb832b93630b7329030b230b83a32b960791b8152508360006001600160a01b0316846001600160a01b0316141560405180604001604052806002815260200161323360f01b81525090620000be5760405162461bcd60e51b8152600401620000b59190620003f2565b60405180910390fd5b506001600160a01b03841660805260a08390526001620000df8382620004d1565b503060c05260005b8151811015620001ef5760008282815181106200010857620001086200059d565b6020026020010151905060006001600160a01b031681600001516001600160a01b0316141560405180604001604052806002815260200161323760f01b81525090620001695760405162461bcd60e51b8152600401620000b59190620003f2565b50805160208083018051600090815280835260409081902080546001600160a01b0319166001600160a01b03958616179055905184518251918252909316918301919091527fa214744f665691ef0eb9e4277cfa3c9198106c8925d6fa6880b6813f705c1aab910160405180910390a15080620001e681620005b3565b915050620000e7565b5050604080518082019091526002815261034360f41b6020820152925050506001600160a01b038416620002385760405162461bcd60e51b8152600401620000b59190620003f2565b5050506001600160a01b031660e05250620005db565b80516001600160a01b03811681146200026657600080fd5b919050565b634e487b7160e01b600052604160045260246000fd5b604080519081016001600160401b0381118282101715620002a657620002a66200026b565b60405290565b604051601f8201601f191681016001600160401b0381118282101715620002d757620002d76200026b565b604052919050565b60008060008060808587031215620002f657600080fd5b62000301856200024e565b93506020620003128187016200024e565b60408781015160608901519296509450906001600160401b03808211156200033957600080fd5b818901915089601f8301126200034e57600080fd5b8151818111156200036357620003636200026b565b62000373858260051b01620002ac565b818152858101925060069190911b83018501908b8211156200039457600080fd5b928501925b81841015620003e25784848d031215620003b35760008081fd5b620003bd62000281565b620003c8856200024e565b815284870151878201528352928401929185019162000399565b989b979a50959850505050505050565b600060208083528351808285015260005b81811015620004215785810183015185820160400152820162000403565b506000604082860101526040601f19601f8301168501019250505092915050565b600181811c908216806200045757607f821691505b6020821081036200047857634e487b7160e01b600052602260045260246000fd5b50919050565b601f821115620004cc57600081815260208120601f850160051c81016020861015620004a75750805b601f850160051c820191505b81811015620004c857828155600101620004b3565b5050505b505050565b81516001600160401b03811115620004ed57620004ed6200026b565b6200050581620004fe845462000442565b846200047e565b602080601f8311600181146200053d5760008415620005245750858301515b600019600386901b1c1916600185901b178555620004c8565b600085815260208120601f198616915b828110156200056e578886015182559484019460019091019084016200054d565b50858210156200058d5787850151600019600388901b60f8161c191681555b5050505050600190811b01905550565b634e487b7160e01b600052603260045260246000fd5b600060018201620005d457634e487b7160e01b600052601160045260246000fd5b5060010190565b60805160a05160c05160e051610b216200063f600039600081816101df01528181610306015281816103ec0152818161049301526104e7015260006106ed01526000818161013b01526102d601526000818161021301526107430152610b216000f3fe6080604052600436106100915760003560e01c8063b86a616111610059578063b86a61611461015d578063ba286578146101ab578063be873338146101cd578063c495636614610201578063d68875811461009657600080fd5b80631e02e77c1461009657806336da7a06146100c757806352d1043d1461010657806356d5d4751461011657806381fbadad14610129575b600080fd5b3480156100a257600080fd5b506100b46100b13660046107e8565b90565b6040519081526020015b60405180910390f35b3480156100d357600080fd5b506100e76100e236600461084a565b610235565b604080516001600160a01b0390931683526020830191909152016100be565b34801561011257600080fd5b505b005b6101146101243660046108c0565b6104c3565b34801561013557600080fd5b506100b47f000000000000000000000000000000000000000000000000000000000000000081565b34801561016957600080fd5b506101936101783660046107e8565b6000908152602081905260409020546001600160a01b031690565b6040516001600160a01b0390911681526020016100be565b3480156101b757600080fd5b506101c06105ae565b6040516100be9190610975565b3480156101d957600080fd5b506101937f000000000000000000000000000000000000000000000000000000000000000081565b34801561020d57600080fd5b506101937f000000000000000000000000000000000000000000000000000000000000000081565b600080806102428661063c565b604080518082019091526002815261031360f41b602082015290915063ffffffff821661028b5760405162461bcd60e51b81526004016102829190610975565b60405180910390fd5b506040805180820190915260018152603960f81b60208201526001600160a01b0389166102cb5760405162461bcd60e51b81526004016102829190610975565b5060006103006102fb7f00000000000000000000000000000000000000000000000000000000000000008a61098f565b6106a5565b905060007f00000000000000000000000000000000000000000000000000000000000000006001600160a01b031663f7ccd321846103448d6001600160a01b031690565b8a8a876040518663ffffffff1660e01b81526004016103679594939291906109d9565b602060405180830381865afa158015610384573d6000803e3d6000fd5b505050506040513d601f19601f820116820180604052508101906103a89190610a1d565b90504781111560405180604001604052806002815260200161313160f01b815250906103e75760405162461bcd60e51b81526004016102829190610975565b5060007f00000000000000000000000000000000000000000000000000000000000000006001600160a01b03166348aee8d4838661042b8f6001600160a01b031690565b8c8c896040518763ffffffff1660e01b815260040161044e9594939291906109d9565b60206040518083038185885af115801561046c573d6000803e3d6000fd5b50505050506040513d601f19601f820116820180604052508101906104919190610a1d565b7f00000000000000000000000000000000000000000000000000000000000000009c909b509950505050505050505050565b604080518082019091526002815261313360f01b6020820152336001600160a01b037f000000000000000000000000000000000000000000000000000000000000000016146105255760405162461bcd60e51b81526004016102829190610975565b5063ffffffff84166000818152602081905260409020548491906001600160a01b03808416911614801561056157506001600160a01b03821615155b60405180604001604052806002815260200161189960f11b8152509061059a5760405162461bcd60e51b81526004016102829190610975565b506105a68484836106c9565b505050505050565b600180546105bb90610a36565b80601f01602080910402602001604051908101604052809291908181526020018280546105e790610a36565b80156106345780601f1061060957610100808354040283529160200191610634565b820191906000526020600020905b81548152906001019060200180831161061757829003601f168201915b505050505081565b600063ffffffff8211156106a15760405162461bcd60e51b815260206004820152602660248201527f53616665436173743a2076616c756520646f65736e27742066697420696e203360448201526532206269747360d01b6064820152608401610282565b5090565b60606106c360008333604051806020016040528060008152506107b3565b92915050565b6040805180820190915260028152610c8d60f21b6020820152306001600160a01b037f0000000000000000000000000000000000000000000000000000000000000000161461072b5760405162461bcd60e51b81526004016102829190610975565b506040516376b42cad60e11b81526001600160a01b037f0000000000000000000000000000000000000000000000000000000000000000169063ed68595a9061077c90869086908690600401610a70565b600060405180830381600087803b15801561079657600080fd5b505af11580156107aa573d6000803e3d6000fd5b50505050505050565b60606001858585856040516020016107cf959493929190610a94565b6040516020818303038152906040529050949350505050565b6000602082840312156107fa57600080fd5b5035919050565b60008083601f84011261081357600080fd5b50813567ffffffffffffffff81111561082b57600080fd5b60208301915083602082850101111561084357600080fd5b9250929050565b60008060008060006080868803121561086257600080fd5b85356001600160a01b038116811461087957600080fd5b94506020860135935060408601359250606086013567ffffffffffffffff8111156108a357600080fd5b6108af88828901610801565b969995985093965092949392505050565b600080600080606085870312156108d657600080fd5b843563ffffffff811681146108ea57600080fd5b935060208501359250604085013567ffffffffffffffff81111561090d57600080fd5b61091987828801610801565b95989497509550505050565b60005b83811015610940578181015183820152602001610928565b50506000910152565b60008151808452610961816020860160208601610925565b601f01601f19169290920160200192915050565b6020815260006109886020830184610949565b9392505050565b808201808211156106c357634e487b7160e01b600052601160045260246000fd5b81835281816020850137506000828201602090810191909152601f909101601f19169091010190565b63ffffffff861681528460208201526080604082015260006109ff6080830185876109b0565b8281036060840152610a118185610949565b98975050505050505050565b600060208284031215610a2f57600080fd5b5051919050565b600181811c90821680610a4a57607f821691505b602082108103610a6a57634e487b7160e01b600052602260045260246000fd5b50919050565b604081526000610a846040830185876109b0565b9050826020830152949350505050565b61ffff60f01b8660f01b1681528460028201528360228201526bffffffffffffffffffffffff198360601b16604282015260008251610ada816056850160208701610925565b91909101605601969550505050505056fea2646970667358221220bc39b035dac0b120c4144d93816e2579959723eee2d0b8fa2adde1dac1e1a09b64736f6c63430008130033",
    "linkReferences": {}
  },
  "methodIdentifiers": {
    "BASE_GAS_LIMIT()": "81fbadad",
    "CROSS_CHAIN_CONTROLLER()": "c4956366",
    "HL_MAIL_BOX()": "be873338",
    "adapterName()": "ba286578",
    "forwardMessage(address,uint256,uint256,bytes)": "36da7a06",
    "getTrustedRemoteByChainId(uint256)": "b86a6161",
    "handle(uint32,bytes32,bytes)": "56d5d475",
    "infraToNativeChainId(uint256)": "d6887581",
    "nativeToInfraChainId(uint256)": "1e02e77c",
    "setupPayments()": "52d1043d"
  },
  "id": 66
}